:020000040000FA
:040000000DEF00F010
:0400080077EF16F088
:06001800FF0093EF19F058
:1026000000000000000000000000000000000000CA
:1026100000000000000000000000000000000000BA
:102620000000000000000000010203040506070886
:0326300050010056
:10263400610038F4D9F461003CF4DAF4610078F311
:1026440014F5610078F315F5610078F316F561006F
:1026540078F317F520EE04F00E50D9260F50DA2245
:10266400DFA037EF13F039EF13F073EF13F020EE20
:1026740001F00C50D9260D50DA221438E842F80B38
:10268400F80BDF6E050E106ED89017321632153225
:102694001432102E46EF13F020EE02F00C50D9261F
:1026A4000D50DA22610050F4DFF415C514F516C597
:1026B40015F517C516F5176A20EE03F00C50D92648
:1026C4000D50DA2214501F0BDF6E050E106ED890D9
:1026D4001732163215321432102E69EF13F08BEFC5
:1026E40013F020EE03F00C50D9260D50DA22000E20
:1026F400DF6E10EE02F00C50E1260D50E222DFC432
:10270400E7F420EE01F00C50D9260D50DA22E7C48C
:10271400DFF4610030F4D9F4610034F4DAF46100D8
:1027240050F4DFF415C514F516C515F517C516F5DF
:10273400176A14C510F5070E101620EE01F00C50A0
:10274400D9260D50DA221050DF1220EE04F00E507C
:10275400D9260F50DA22DF30E8320F0B136E20EE49
:1027640004F00E50D9260F50DA22DFB0BCEF13F07C
:10277400C0EF13F0106A102AC1EF13F0106A10387A
:10278400F00B131220EE04F00E50D9260F50DA226B
:10279400DFB2CFEF13F0D3EF13F0200E106ED4EFAF
:1027A40013F0106A1050131220EE04F00E50D926C4
:1027B4000F50DA22DFBEE1EF13F0E5EF13F0400E25
:1027C400106EE6EF13F0106A1050131220EE04F0AE
:1027D4000E50D9260F50DA22DFBCF3EF13F0F7EFD7
:1027E40013F0800E106EF8EF13F0106A10501312ED
:1027F40020EE04F00C50D9260D50DA2261004CF47E
:10280400DFF420EE04F00E50D9260F50DA22DFB2A6
:102814000EEF14F010EF14F03CEF14F0080E0C243B
:10282400016E000E0D20026E20EE05F00E50D9262A
:102834000F50DA22610078F303F5610074F304F5B4
:1028440020EE04F00E50D9260F50DA22DF30E832A1
:102854000F0B106E116A270E1024F66E260E11202F
:10286400F76EF86A000EF8220800F550056E066A45
:102874003AEC19F0120001011DAF43EF14F045EFDB
:1028840014F054EF14F002D852EF14F00500FA6E6D
:1028940005019051FD6E9151FE6EFF6AFA501200CF
:1028A40001011D9F1DAD59EF14F05BEF14F06AEFA9
:1028B40014F002D868EF14F00500FA6E05018E5189
:1028C400FD6E8F51FE6EFF6AFA50120001011D9DCC
:1028D4001DAB6FEF14F071EF14F080EF14F002D819
:1028E4007EEF14F00500FA6E05018C51FD6E8D51DA
:1028F400FE6EFF6AFA50120001011D9B1CA785EFB2
:1029040014F087EF14F096EF14F002D894EF14F05B
:102914000500FA6E05018A51FD6E8B51FE6EFF6A49
:10292400FA50120001011C971DA99BEF14F09DEFB2
:1029340014F0ACEF14F002D8AAEF14F00500FA6E0C
:1029440005018851FD6E8951FE6EFF6AFA5012002E
:1029540001011D991DA5B1EF14F0B3EF14F0C9EFF7
:1029640014F002D8C0EF14F00500FA6E0501865188
:10297400FD6E8751FE6EFF6AFA501200010154A9E0
:10298400C6EF14F0C8EF14F0C9EF14F054991DA762
:10299400CEEF14F0D0EF14F0E6EF14F002D8DDEF30
:1029A40014F00500FA6E05018451FD6E8551FE6E2A
:1029B400FF6AFA501200010160A7E3EF14F0E5EF9B
:1029C40014F0E6EF14F06097AE9C120070EF15F06F
:1029D4004650D8A4F0EF14F0F2EF14F08DEF15F098
:1029E400E60E1E6E060E1F6E000E206E000E216E89
:1029F400080E226E000E236E000E246E000E256E4D
:102A0400000E266E48C527F547C528F54BC529F5A0
:102A14004AC52AF58EEC15F000F0EC0E1E6E060E7B
:102A24001F6E000E206E000E216E080E226E000E28
:102A3400236E000E246E000E256E000E266E48C511
:102A440027F547C528F54BC529F54AC52AF58EEC67
:102A540015F08DEF15F04650D8A433EF15F035EF8F
:102A640015F08DEF15F0E90E1E6E060E1F6E000EAA
:102A7400206E000E216E080E226E000E236E000ED4
:102A8400246E000E256E000E266E48C527F547C538
:102A940028F54BC529F54AC52AF58EEC15F000F04A
:102AA400EF0E1E6E060E1F6E000E206E000E216EBF
:102AB400080E226E000E236E000E246E000E256E8C
:102AC400000E266E48C527F547C528F54BC529F5E0
:102AD4004AC52AF58EEC15F08DEF15F04550356E8C
:102AE400366A3650000AD8B47AEF15F08DEF15F037
:102AF4003550010AD8B4EAEF14F0030AD8B42DEF24
:102B040015F0010AD8B48DEF15F0070AD8B48DEF8B
:102B140015F08DEF15F0120023502C6E2B6A000E69
:102B24002B142D6EFF0E2C142E6E24502D122550B6
:102B34002C6E2B6A000E2B142F6EFF0E2C14306E8D
:102B440026502F1227502C6E2B6A000E2B14316E38
:102B5400FF0E2C14326E2850311229502C6E2B6A21
:102B6400000E2B14336EFF0E2C14346E2A503312C5
:102B740023C59CF524C59DF525C59EF526C59FF561
:102B840027C5A0F528C5A1F529C5A2F52AC5A3F531
:102B94000AEC1CF0040AD8A4D2EF15F0D4EF15F017
:102BA4000AEF16F0060E15EC18F00009D8A4DDEFB4
:102BB40015F0DFEF15F00AEF16F01EC550F51FC52E
:102BC40051F520C552F521C553F5549C549E549299
:102BD400549022C52BF52B462B4654502B18C30B6F
:102BE4002B18546E9C0E556E050E566E000E45EC59
:102BF4001BF02B6E2BA001EF16F003EF16F00AEF7B
:102C040016F0500E186E050E196E000ECBEC17F070
:102C14001200076E000E096E20EE04F00250D92651
:102C24000350DA22DF500A6E0AAE1BEF16F01DEFD6
:102C340016F028EF16F00AEC1CF0060AD8A425EFCB
:102C440016F027EF16F028EF16F009820A30E83262
:102C54000F0B046E080E046432EF16F034EF16F016
:102C640046EF16F00AAC39EF16F03BEF16F045EFDD
:102C740016F00AEC1CF0060AD8A443EF16F045EF50
:102C840016F046EF16F009802F0EF66E260EF76E3C
:102C9400F86A08006100D4F304F50A30E8320F0B37
:102CA400056E066A270E0524F66E260E0620F76EBC
:102CB400F86A000EF8220800F550045CD8B065EFFD
:102CC40016F067EF16F068EF16F00980075088ECED
:102CD4001BF00009D8A471EF16F073EF16F075EF2E
:102CE40016F0030E0912095012006100D8F337F5EB
:102CF4006100DCF338F56100E0F339F56100D4F3E9
:102D04003AF5A1A888EF16F08AEF16F095EF16F0C1
:102D1400B1A88FEF16F091EF16F095EF16F0DDECF9
:102D240019F0CBEF16F0A1AE9AEF16F09CEF16F067
:102D3400A7EF16F0B1AEA1EF16F0A3EF16F0A7EFD0
:102D440016F008EC1BF0CBEF16F09FA0ACEF16F0DA
:102D5400AEEF16F0B9EF16F0AFA0B3EF16F0B5EF83
:102D640016F0B9EF16F00FEC1CF0CBEF16F09EAC9A
:102D7400BEEF16F0C0EF16F0CBEF16F0AEACC5EF19
:102D840016F0C7EF16F0CBEF16F03DEC14F0CBEFD6
:102D940016F06100E8F4F5F46100E4F4F8F461007D
:102DA400E0F4F7F46100DCF4F6F41100020E030120
:102DB400F96F000EFA6F000ED86F000EFB6F000E55
:102DC400D96F000EDA6F000EDB6F000EDC6F000EA1
:102DD400DF6F000EE06F000EE36F000EE46F000E75
:102DE400E56F000EE66F000EE76F000EEA6F000E4F
:102DF400EB6F100EEC6F000EEE6F000EEF6F000E17
:102E0400F06F000EF16F000EF26F000EF36F000E04
:102E1400F46F100EF56F000EF66F000EF76F120EC2
:102E2400F86F000EFC6FAF94AF96B090000E0501E2
:102E3400C86F000EC96F05EC1CF0000E0501C86FC9
:102E4400000EC96FFBEC1BF0000E0501C86F000EED
:102E5400C96F00EC1CF0840E0301F36F12004EC521
:102E640001F54F500CEC19F04D026100CCF349F51B
:102E74004950640D6100CCF33DF56100D0F33EF59B
:102E84003DC501F53EC502F5000E046E240E036E29
:102E9400F3EC1AF001C507F502C508F5000E0A6E39
:102EA4000A0E096ED2EC18F007C53BF508C53CF5CF
:102EB400980E3B5C3A0E3C58D8A063EF17F065EFD0
:102EC40017F069EF17F0010E466E7CEF17F0000E55
:102ED400466E3BC507F53CC508F5000E0A6E640E48
:102EE400096ED2EC18F00750486E4850180DF35094
:102EF4003B24476E000E4D6E12000501CA6F000E92
:102F04000501C96FD3EC1BF00501C86F040EC81985
:102F1400D8B48FEF17F091EF17F0A2EF17F0CA05AE
:102F2400D8B497EF17F099EF17F0A2EF17F0040E4B
:102F3400CA19D8A4A0EF17F0A2EF17F0C7EF17F043
:102F4400010103510501CA19F80BCA190101036FE4
:102F5400B9EF17F001011DA9B2EF17F0B4EF17F0A4
:102F6400B9EF17F0020E0501C96FC9EF17F0023966
:102F7400E832070B0501CA19D8A4C3EF17F0C5EF4F
:102F840017F0ACEF17F0C9EF17F0010EC96FC95174
:102F940012001D6E1D50FCEC19F00009D8B4D5EFD9
:102FA40017F0D7EF17F014EF18F018C502F519C58C
:102FB40003F51D500BEC16F01A6E1A50D8A4E5EF69
:102FC40017F0E7EF17F014EF18F01D500C0D580E22
:102FD400F324D96E010EF420DA6E610078F31BF548
:102FE400610074F31CF51B501C10D8B4FCEF17F0EF
:102FF400FEEF17F014EF18F01BC50CF51CC50DF50A
:1030040018C50EF519C50FF51AEC13F01D500C0D6B
:10301400510EF324D96E010EF420DA6E030EDF1282
:1030240014EF18F01200036E000E026E0AEC1CF08E
:10303400016E040E0118D8B422EF18F024EF18F032
:1030440035EF18F00304D8B42AEF18F02CEF18F079
:1030540035EF18F0040E0318D8A433EF18F035EF49
:1030640018F055EF18F0010103510318F80B031879
:10307400036F48EF18F01DA942EF18F044EF18F061
:1030840048EF18F0020E026E57EF18F00239E832DA
:10309400070B0318D8A451EF18F053EF18F03DEFC5
:1030A40018F057EF18F0010E026E025012003E0E97
:1030B4000501C86F380EC96FECEC1BF0400E05011A
:1030C400C86F380EC96FF1EC1BF0420E0501C86FD2
:1030D400380EC96FF6EC1BF03C0E0501C86F380EB4
:1030E400C96FE7EC1BF0380E0501C86F380EC96FC5
:1030F400DDEC1BF0360E0501C86F380EC96FD8EC35
:103104001BF03A0E0501C86F380EC96FE2EC1BF0D4
:10311400AE9C000E01011C6F000E1D6F080E1E6F89
:10312400FC0E1F6F9E8C1200000EBE6E000EBF6E52
:10313400000EC06E080ECA6EEF0EC66ECF0EC76EBE
:10314400E70EC86E670E0401106FF60E086F006973
:10315400000E216F000E096F000E016F000E116F3B
:10316400000E026F000E0A6F180E126F03690B69CE
:10317400136904690C691469080E246F170E02019F
:10318400696F140E706F370E146F080E3E6F380E91
:10319400156F0B0E3D6F460E0D6F130E716F1200FF
:1031A400000E0C6E000E0B6E09500A10D8B4DDEF41
:1031B40018F0DFEF18F007EF19F0010E0D6EE7EFCE
:1031C40018F0D89009360A360D2A0AAEECEF18F03A
:1031D400EEEF18F0E3EF18F0D8900B360C360950E8
:1031E400075C0A500858D8A0FAEF18F0FCEF18F062
:1031F40001EF19F00950075E0A50085A0B80D89065
:103204000A3209320D2EEEEF18F00BC507F50CC586
:1032140008F51200026E000E046E0150D8B415EFCA
:1032240019F017EF19F038EF19F0010E036E1EEFC5
:1032340019F0D8900136032A01AE23EF19F025EFD7
:1032440019F01BEF19F0D89004360150025CD8A095
:103254002EEF19F030EF19F033EF19F00150025E40
:103264000480D8900132032E25EF19F00450120087
:1032740003C509F504C50AF501C507F502C508F536
:1032840059EF19F0610024F4D9F4610028F4DAF458
:10329400DF500B6E094A0A2A61001CF4D9F461005C
:1032A40020F4DAF461002CF4DFF4074A082A050656
:1032B400D8A00606052806E10628D8A464EF19F06C
:1032C40066EF19F044EF19F012000101018F040EAA
:1032D4007FEC17F00009D8A472EF19F074EF19F01D
:1032E40092EF19F0000E01014C6F260E4D6F000E87
:1032F4004E6F000E4F6F600E006F970E016F100E31
:10330400026FB3EC1BF09FEC1BF0A9EC1BF017EC65
:103314001CF06BEC1AF059EC18F0060E7FEC17F069
:103324001200D60EF66E360EF76E000EF86E01EE33
:103334009AF110EE22F00900F5C4EEF4E550E150E4
:10334400FAE101EE60F13A0EEE6AE806FDE101EE03
:103354003BF11C0EEE6AE806FDE10401080E5D6F08
:10336400000E5E6F000E5F6F00011BEF1AF0000E7F
:1033740003011F6F000E206F010E216F0B0E1D6FD6
:10338400DC0E1C6FB1981C51600074FCCAF5050179
:10339400CB6BCAC5CBF5CA6BCA11576ECB51586EED
:1033A400A188300EC86F380EC96FC4EC1BF0210E13
:1033B40003011E6F1200B19857C501F558C502F5F7
:1033C40082EC1AF031EC17F0E8EC14F0434A442A8A
:1033D400445009E1050E435CD8A0F3EF19F0F5EF72
:1033E40019F0FBEF19F099EC1AF0000E446E000E80
:1033F400436E1200026E000E016E040E026005EFB1
:103404001AF007EF1AF019EF1AF002500C0D500ED3
:10341400F324D96E010EF420DA6E0101DFAE15EF4C
:103424001AF017EF1AF019EF1AF0010E016E01509D
:103434001200C7EC1AF0BDEC1BF0C79ABF9AD68EE7
:10344400BE88030E0501C96FE80EC86F51EC1AF06F
:10345400BE98030E0501C96FE80EC86F51EC1AF04F
:1034640022EF1AF00DEF00F015EC1CF059EC1BF0F4
:103474000501C051C111D8B442EF1AF044EF1AF05B
:1034840050EF1AF002D850EF1AF00500FA6EC0514E
:10349400FD6EC151FE6EFF6AFA50120012005CEF1D
:1034A4001AF0040E0501CA6F3D0EE82EFED7CA2F8E
:1034B400FCD700D00501C807D8A0C907C82906E170
:1034C400C929D8A468EF1AF06AEF1AF053EF1AF07A
:1034D4001200000E0501C86FC851020D9B0EF324A3
:1034E400D96E050EF420DA6E000EDF6EC82BC851BB
:1034F400D8B47FEF1AF081EF1AF06EEF1AF01200D1
:1035040003011EA588EF1AF08AEF1AF093EF1AF060
:103514001E9102501D6F610004F41CF31E8198EF8C
:103524001AF002501D6F610004F41CF3120005012F
:10353400BE51BF11D8B4A1EF1AF0A3EF1AF0AFEF48
:103544001AF002D8AFEF1AF00500FA6EBE51FD6E04
:10355400BF51FE6EFF6AFA50120012000501BC5101
:10356400BD11D8B4B8EF1AF0BAEF1AF0C6EF1AF0DA
:1035740002D8C6EF1AF00500FA6EBC51FD6EBD51BB
:10358400FE6EFF6AFA501200120096EC18F0BE8824
:1035940013EC1CF031EC1BF0DDEC1AF0D8EC16F057
:1035A4007CEC1BF0B9EC19F094EC1BF01DEC1BF057
:1035B40067EC19F01200040E0201946F800E956FEF
:1035C400180E966F030E9E6F000E9A6F000E9B6F7F
:1035D400000E976F000E8C6F000E8D6F000E9D6FA6
:1035E4001200015003026100CCF305F56100D0F331
:1035F40006F501500402F350062602500302F3506C
:10360400062605C501F506C502F51200B19E414A1C
:10361400422A425009E1050E415CD8A014EF1BF088
:1036240016EF1BF01CEF1BF0B0EC1AF0000E426E0C
:10363400000E416E1200470E03011B6FC20E196F7C
:10364400000E186FB19EA18E320E0501C86F380EA0
:10365400C96FC9EC1BF0800E03011A6F1200000E33
:103664000001606F000E616F000E626F000E636FE9
:10367400000E646F000E656F000E666F000E676FBC
:10368400000E686F1200046E000E036E0450FCEC12
:1036940019F00009D8B451EF1BF053EF1BF057EFAA
:1036A4001BF0045088EC1BF0036E035012004C2AEC
:1036B4001F0E4C6460EF1BF062EF1BF06AEF1BF00F
:1036C400000E4C6E3F4A402A3FC54BF540504A6EAF
:1036D4001200010042554646455243414E00000047
:1036E40000000000000000000000000000000000D6
:1036F40000000000700E0001AD6F000EAF6F000EF1
:10370400B36F020EB16F000EB06F1200016E015064
:103714000C0D540EF324D96E010EF420DA6EDF5032
:10372400010B1200AF90D680340E0501C86F380E1D
:10373400C96FCEEC1BF09F801200100E0101506F78
:10374400040E516F600E526F050E536F1200080E77
:1037540001015C6F040E5D6F600E5E6F050E5F6F9E
:103764001200010E0101046F010E056F060E066FB3
:10377400000E076F1200020E456EA70E4F6E200E4C
:103784004E6E1200C8C5BEF5C9C5BFF51200C8C546
:10379400BCF5C9C5BDF51200C8C5C0F5C9C5C1F59C
:1037A400120001010239E832070B1200C8C586F580
:1037B400C9C587F51200C8C588F5C9C589F51200C1
:1037C400C8C584F5C9C585F51200C8C58AF5C9C53B
:1037D4008BF51200C8C590F5C9C591F51200C8C58E
:1037E4008EF5C9C58FF51200C8C58CF5C9C58DF510
:1037F4001200C8C5C4F5C9C5C5F51200C8C5C2F5CF
:10380400C9C5C3F51200C8C5C6F5C9C5C7F51200B8
:1038140001010239E832070B1200AF9036EC1AF0BE
:103824001200D69A12004D2A120012001200120041
:1038340012001200120012001200120012001200F4
:020000040020DA
:10000000FF0FFF0FFF0FFF0FFF0FFF0FFF0FFF0F80
:10001000FF0FFF0FFF0FFF0FFF0FFF0FFF0FFF0F70
:020000040030CA
:10000000FAEFF7DF9FFFFFFFFFFFFFFFFFFFFFFF9D
:10001000FFFFFFFFFFFFFFFFFFFFFFFFFFFFFFFFF0
:04002000FFFFFFFFE0
:00000001FF
