:020000040000FA
:040000000DEF00F010
:0400080056EF16F0A9
:06001800FF00F9EF18F0F3
:1026000000000000000000000000000000000000CA
:1026100000000000000000000000000000000000BA
:102620000000000000000000010203040506070886
:0326300050010056
:10263400610038F4D9F461003CF4DAF4610078F311
:1026440014F5610078F315F5610078F316F561006F
:1026540078F317F520EE04F00E50D9260F50DA2245
:10266400DFA037EF13F039EF13F073EF13F020EE20
:1026740001F00C50D9260D50DA221438E842F80B38
:10268400F80BDF6E050E106ED89017321632153225
:102694001432102E46EF13F020EE02F00C50D9261F
:1026A4000D50DA22610050F4DFF415C514F516C597
:1026B40015F517C516F5176A20EE03F00C50D92648
:1026C4000D50DA2214501F0BDF6E050E106ED890D9
:1026D4001732163215321432102E69EF13F08BEFC5
:1026E40013F020EE03F00C50D9260D50DA22000E20
:1026F400DF6E10EE02F00C50E1260D50E222DFC432
:10270400E7F420EE01F00C50D9260D50DA22E7C48C
:10271400DFF4610030F4D9F4610034F4DAF46100D8
:1027240050F4DFF415C514F516C515F517C516F5DF
:10273400176A14C510F5070E101620EE01F00C50A0
:10274400D9260D50DA221050DF1220EE04F00E507C
:10275400D9260F50DA22DF30E8320F0B136E20EE49
:1027640004F00E50D9260F50DA22DFB0BCEF13F07C
:10277400C0EF13F0106A102AC1EF13F0106A10387A
:10278400F00B131220EE04F00E50D9260F50DA226B
:10279400DFB2CFEF13F0D3EF13F0200E106ED4EFAF
:1027A40013F0106A1050131220EE04F00E50D926C4
:1027B4000F50DA22DFBEE1EF13F0E5EF13F0400E25
:1027C400106EE6EF13F0106A1050131220EE04F0AE
:1027D4000E50D9260F50DA22DFBCF3EF13F0F7EFD7
:1027E40013F0800E106EF8EF13F0106A10501312ED
:1027F40020EE04F00C50D9260D50DA2261004CF47E
:10280400DFF420EE04F00E50D9260F50DA22DFB2A6
:102814000EEF14F010EF14F03CEF14F0080E0C243B
:10282400016E000E0D20026E20EE05F00E50D9262A
:102834000F50DA22610078F303F5610074F304F5B4
:1028440020EE04F00E50D9260F50DA22DF30E832A1
:102854000F0B106E116A270E1024F66E260E11202F
:10286400F76EF86A000EF8220800F550056E066A45
:10287400A0EC18F0120001011DAF43EF14F045EF76
:1028840014F054EF14F002D852EF14F00500FA6E6D
:1028940005019051FD6E9151FE6EFF6AFA501200CF
:1028A40001011D9F1DAD59EF14F05BEF14F06AEFA9
:1028B40014F002D868EF14F00500FA6E05018E5189
:1028C400FD6E8F51FE6EFF6AFA50120001011D9DCC
:1028D4001DAB6FEF14F071EF14F080EF14F002D819
:1028E4007EEF14F00500FA6E05018C51FD6E8D51DA
:1028F400FE6EFF6AFA50120001011D9B1CA785EFB2
:1029040014F087EF14F096EF14F002D894EF14F05B
:102914000500FA6E05018A51FD6E8B51FE6EFF6A49
:10292400FA50120001011C971DA99BEF14F09DEFB2
:1029340014F0ACEF14F002D8AAEF14F00500FA6E0C
:1029440005018851FD6E8951FE6EFF6AFA5012002E
:1029540001011D991DA5B1EF14F0B3EF14F0C9EFF7
:1029640014F002D8C0EF14F00500FA6E0501865188
:10297400FD6E8751FE6EFF6AFA501200010154A9E0
:10298400C6EF14F0C8EF14F0C9EF14F054991DA762
:10299400CEEF14F0D0EF14F0E6EF14F002D8DDEF30
:1029A40014F00500FA6E05018451FD6E8551FE6E2A
:1029B400FF6AFA501200010160A7E3EF14F0E5EF9B
:1029C40014F0E6EF14F06097AE9C120023502C6EC6
:1029D4002B6A000E2B142D6EFF0E2C142E6E245019
:1029E4002D1225502C6E2B6A000E2B142F6EFF0E09
:1029F4002C14306E26502F1227502C6E2B6A000E8A
:102A04002B14316EFF0E2C14326E285031122950C3
:102A14002C6E2B6A000E2B14336EFF0E2C14346EA6
:102A24002A50331223C59CF524C59DF525C59EF572
:102A340026C59FF527C5A0F528C5A1F529C5A2F58A
:102A44002AC5A3F51EC550F51FC551F520C552F57D
:102A540021C553F5549C549E5492549022C52BF591
:102A64002B462B4654502B18C30B2B18546E9C0E1C
:102A7400556E050E566E29EC1BF0E806D8A445EFFA
:102A840015F047EF15F048EF15F000F01EEC1BF0C1
:102A9400E806D8A450EF15F052EF15F053EF15F0F7
:102AA40000F013EC1BF0E806D8A45BEF15F05DEF23
:102AB40015F05EEF15F000F0E3EC1AF0E806D8A488
:102AC40066EF15F068EF15F069EF15F000F0000EF1
:102AD400ABEC1AF02B6E2BA072EF15F074EF15F01F
:102AE4007CEF15F0500E186E050E196E000E5CEC9E
:102AF40017F000F01200CCEF15F04750D8A485EF82
:102B040015F087EF15F0E9EF15F0010E1E6E030EB8
:102B14001F6E000E206E000E216E080E226E000E37
:102B2400236E000E246E000E256E000E266E49C51F
:102B340027F548C528F54CC529F54BC52AF5E8EC19
:102B440014F000F0070E1E6E030E1F6E000E206EB2
:102B5400000E216E080E226E000E236E000E246EEF
:102B6400000E256E000E266E0A0E276E140E286EB9
:102B74004CC529F54BC52AF5E8EC14F0E9EF15F03E
:102B84004750D8A4C8EF15F0CAEF15F0E9EF15F0D7
:102B940087EF15F04650356E366A3650000AD8B4C1
:102BA400D6EF15F0E9EF15F03550010AD8B47FEFF0
:102BB40015F0030AD8B4C2EF15F0010AD8B4E9EF4E
:102BC40015F0070AD8B4E9EF15F0E9EF15F0120093
:102BD400076E000E096E20EE04F00250D926035051
:102BE400DA22DF500A6E0AAEFAEF15F0FCEF15F0A8
:102BF40007EF16F09FEC1BF0060AD8A404EF16F0BA
:102C040006EF16F007EF16F009820A30E8320F0BD0
:102C1400046E080E046411EF16F013EF16F025EF9E
:102C240016F00AAC18EF16F01AEF16F024EF16F0AF
:102C34009FEC1BF0060AD8A422EF16F024EF16F03E
:102C440025EF16F009802F0EF66E260EF76EF86A41
:102C540008006100D4F304F50A30E8320F0B056E66
:102C6400066A270E0524F66E260E0620F76EF86A0D
:102C7400000EF8220800F550045CD8B044EF16F0BA
:102C840046EF16F047EF16F009800750FCEC1AF0F7
:102C94000009D8A450EF16F052EF16F054EF16F0D6
:102CA400030E0912095012006100D8F337F56100D0
:102CB400DCF338F56100E0F339F56100D4F33AF55B
:102CC400A1A867EF16F069EF16F074EF16F0B1A83B
:102CD4006EEF16F070EF16F074EF16F043EC19F087
:102CE400AAEF16F0A1AE79EF16F07BEF16F086EF9F
:102CF40016F0B1AE80EF16F082EF16F086EF16F004
:102D04006EEC1AF0AAEF16F09FA08BEF16F08DEF81
:102D140016F098EF16F0AFA092EF16F094EF16F0BD
:102D240098EF16F0A4EC1BF0AAEF16F09EAC9DEF02
:102D340016F09FEF16F0AAEF16F0AEACA4EF16F063
:102D4400A6EF16F0AAEF16F03DEC14F0AAEF16F079
:102D54006100E8F4F5F46100E4F4F8F46100E0F4EF
:102D6400F7F46100DCF4F6F41100020E0301F96FCC
:102D7400000EFA6F000ED86F000EFB6F000ED96FB5
:102D8400000EDA6F000EDB6F000EDC6F000EDF6FDB
:102D9400000EE06F000EE36F000EE46F000EE56FAF
:102DA400000EE66F000EE76F000EEA6F000EEB6F89
:102DB400100EEC6F000EEE6F000EEF6F000EF06F52
:102DC400000EF16F000EF26F000EF36F000EF46F41
:102DD400100EF56F000EF66F000EF76F120EF86FFF
:102DE400000EFC6FAF94AF96B090000E0501C86F53
:102DF400000EC96F9AEC1BF0000E0501C86F000E9F
:102E0400C96F90EC1BF0000E0501C86F000EC96F6E
:102E140095EC1BF0840E0301F36F12000501CA6FD9
:102E2400000E0501C96F68EC1BF00501C86F040EA4
:102E3400C819D8B420EF17F022EF17F033EF17F0CA
:102E4400CA05D8B428EF17F02AEF17F033EF17F0BC
:102E5400040ECA19D8A431EF17F033EF17F058EF66
:102E640017F0010103510501CA19F80BCA19010130
:102E7400036F4AEF17F001011DA943EF17F045EF67
:102E840017F04AEF17F0020E0501C96F5AEF17F059
:102E94000239E832070B0501CA19D8A454EF17F018
:102EA40056EF17F03DEF17F05AEF17F0010EC96F08
:102EB400C95112001D6E1D5062EC19F00009D8B4FE
:102EC40066EF17F068EF17F0A5EF17F018C502F5D5
:102ED40019C503F51D50EAEC15F01A6E1A50D8A462
:102EE40076EF17F078EF17F0A5EF17F01D500C0DE3
:102EF400580EF324D96E010EF420DA6E610078F3D3
:102F04001BF5610074F31CF51B501C10D8B48DEF35
:102F140017F08FEF17F0A5EF17F01BC50CF51CC5C4
:102F24000DF518C50EF519C50FF51AEC13F01D5063
:102F34000C0D510EF324D96E010EF420DA6E030E3B
:102F4400DF12A5EF17F01200640E4A6E4A50000D0E
:102F54006100CCF33DF56100D0F33EF53DC501F5CC
:102F64003EC502F5000E046E240E036E59EC1AF0F1
:102F740001C507F502C508F5000E0A6E0A0E096EB2
:102F840066EC18F007C53BF508C53CF5980E3B5CAC
:102F94003A0E3C58D8A0D1EF17F0D3EF17F0D7EF83
:102FA40017F0010E476EEAEF17F0000E476E3BC5AF
:102FB40007F53CC508F5000E0A6E640E096E66EC52
:102FC40018F00750496E49509C0DF3503B24486E4D
:102FD400000E4E6E1200680E0501C86F370EC96FE1
:102FE40081EC1BF06A0E0501C86F370EC96F86ECC1
:102FF4001BF06C0E0501C86F370EC96F8BEC1BF00C
:10300400660E0501C86F370EC96F7CEC1BF0620EAB
:103014000501C86F370EC96F72EC1BF0600E050115
:10302400C86F370EC96F6DEC1BF0640E0501C86FD5
:10303400370EC96F77EC1BF0AE9C000E01011C6FBC
:10304400000E1D6F080E1E6FFC0E1F6F9E8C12006B
:10305400000EBE6E000EBF6E000EC06E080ECA6E6D
:10306400EF0EC66ECF0EC76EE70EC86E670E040174
:10307400106FF60E086F0069000E216F000E096FC5
:10308400000E016F000E116F000E026F000E0A6F2A
:10309400180E126F03690B69136904690C691469CA
:1030A400080E246F170E0201696F140E706F370E2D
:1030B400146F080E3E6F380E156F0B0E3D6F460EE3
:1030C4000D6F130E716F1200000E0C6E000E0B6E5E
:1030D40009500A10D8B471EF18F073EF18F09BEF91
:1030E40018F0010E0D6E7BEF18F0D89009360A36F1
:1030F4000D2A0AAE80EF18F082EF18F077EF18F07F
:10310400D8900B360C360950075C0A500858D8A0E2
:103114008EEF18F090EF18F095EF18F00950075E55
:103124000A50085A0B80D8900A3209320D2E82EFC9
:1031340018F00BC507F50CC508F5120003C509F511
:1031440004C50AF501C507F502C508F5BFEF18F077
:10315400610024F4D9F4610028F4DAF4DF500B6E32
:10316400094A0A2A61001CF4D9F4610020F4DAF453
:1031740061002CF4DFF4074A082A0506D8A00606E5
:10318400052806E10628D8A4CAEF18F0CCEF18F0F9
:10319400AAEF18F012000101018F040E10EC17F0D1
:1031A4000009D8A4D8EF18F0DAEF18F0F8EF18F007
:1031B400000E01014C6F260E4D6F000E4E6F000E77
:1031C4004F6F600E006F970E016F100E026F48EC88
:1031D4001BF034EC1BF03EEC1BF0ACEC1BF0D1EC20
:1031E40019F0EDEC17F0060E10EC17F01200A40E17
:1031F400F66E350EF76E000EF86E01EE9AF110EED3
:1032040022F00900F5C4EEF4E550E150FAE101EED4
:1032140060F13A0EEE6AE806FDE101EE3BF11C0EA8
:10322400EE6AE806FDE10401080E5D6F000E5E6FB4
:10323400000E5F6F000181EF19F0000E03011F6F94
:10324400000E206F010E216F0B0E1D6FDC0E1C6F24
:10325400B1981C51600074FCCAF50501CB6BCAC55A
:10326400CBF5CA6BCA11576ECB51586EA1885A0E52
:10327400C86F370EC96F59EC1BF0210E03011E6F86
:103284001200B19857C501F558C502F5E8EC19F0DC
:10329400A6EC17F07DEC15F0434A442A445009E1AA
:1032A400050E435CD8A059EF19F05BEF19F061EFFC
:1032B40019F0FFEC19F0000E446E000E436E12007C
:1032C400026E000E016E040E02606BEF19F06DEFDA
:1032D40019F07FEF19F002500C0D500EF324D96E43
:1032E400010EF420DA6E0101DFAE7BEF19F07DEF01
:1032F40019F07FEF19F0010E016E015012002DEC50
:103304001AF052EC1BF0C79ABF9AD68EBE88030EF1
:103314000501C96FE80EC86FB7EC19F0BE98030E2B
:103324000501C96FE80EC86FB7EC19F088EF19F002
:103334000DEF00F0AAEC1BF0BFEC1AF00501C05130
:10334400C111D8B4A8EF19F0AAEF19F0B6EF19F02B
:1033540002D8B6EF19F00500FA6EC051FD6EC151E6
:10336400FE6EFF6AFA5012001200C2EF19F0040E4A
:103374000501CA6F3D0EE82EFED7CA2FFCD700D038
:103384000501C807D8A0C907C82906E1C929D8A4D6
:10339400CEEF19F0D0EF19F0B9EF19F01200000ECA
:1033A4000501C86FC851020D9B0EF324D96E050E9A
:1033B400F420DA6E000EDF6EC82BC851D8B4E5EFE6
:1033C40019F0E7EF19F0D4EF19F0120003011EA56C
:1033D400EEEF19F0F0EF19F0F9EF19F01E91025029
:1033E4001D6F610004F41CF31E81FEEF19F00250FE
:1033F4001D6F610004F41CF312000501BE51BF11DE
:10340400D8B407EF1AF009EF1AF015EF1AF002D842
:1034140015EF1AF00500FA6EBE51FD6EBF51FE6E37
:10342400FF6AFA50120012000501BC51BD11D8B454
:103434001EEF1AF020EF1AF02CEF1AF002D82CEF3E
:103444001AF00500FA6EBC51FD6EBD51FE6EFF6AA6
:10345400FA50120012002AEC18F0BE88A8EC1BF0F7
:1034640097EC1AF043EC1AF0B7EC16F0F0EC1AF003
:103474001FEC19F008EC1BF083EC1AF0CDEC18F0FB
:103484001200040E0201946F800E956F180E966F51
:10349400030E9E6F000E9A6F000E9B6F000E976FC7
:1034A400000E8C6F000E8D6F000E9D6F1200015088
:1034B40003026100CCF305F56100D0F306F5015079
:1034C4000402F350062602500302F350062605C5F3
:1034D40001F506C502F51200B19E414A422A425046
:1034E40009E1050E415CD8A07AEF1AF07CEF1AF0DE
:1034F40082EF1AF016EC1AF0000E426E000E416EC6
:103504001200470E03011B6FC20E196F000E186FD5
:10351400B19EA18E5C0E0501C86F370EC96F5EECBB
:103524001BF0800E03011A6F1200000E0001606F81
:10353400000E616F000E626F000E636F000E646F09
:10354400000E656F000E666F000E676F000E686FE9
:103554001200046E000E036E045062EC19F00009B0
:10356400D8B4B7EF1AF0B9EF1AF0BDEF1AF004505F
:10357400FCEC1AF0036E035012004D2A4F504D5CC0
:10358400D8A0C7EF1AF0C9EF1AF0D1EF1AF0000E65
:103594004D6E3F4A402A3FC54CF540504B6E1200D9
:1035A400010042554646455243414E00000000008A
:1035B4000000000000000000000000000000000007
:1035C40000001EEC1BF00009D8B4EBEF1AF0EEEF8C
:1035D4001AF0010EEFEF1AF0000E1200700E000147
:1035E400AD6F000EAF6F000EB36F020EB16F000E21
:1035F400B06F1200016E01500C0D540EF324D96EFD
:10360400010EF420DA6EDF50010B1200AF90D68069
:103614005E0E0501C86F370EC96F63EC1BF09F8007
:103624001200010136B519EF1BF01CEF1BF0010E5F
:103634001DEF1BF0000E1200010136B924EF1BF040
:1036440027EF1BF0010E28EF1BF0000E1200010102
:1036540036BB2FEF1BF032EF1BF0010E33EF1BF0E4
:10366400000E1200100E0101506F040E516F600E17
:10367400526F050E536F1200080E01015C6F040EA9
:103684005D6F600E5E6F050E5F6F1200010E01012B
:10369400046F010E056F060E066F000E076F120011
:1036A400020E466EA70E456E100E4F6E1200C8C570
:1036B400BEF5C9C5BFF51200C8C5BCF5C9C5BDF581
:1036C4001200C8C5C0F5C9C5C1F51200010102390F
:1036D400E832070B1200C8C586F5C9C587F5120084
:1036E400C8C588F5C9C589F51200C8C584F5C9C51A
:1036F40085F51200C8C58AF5C9C58BF51200C8C581
:1037040090F5C9C591F51200C8C58EF5C9C58FF5E8
:103714001200C8C58CF5C9C58DF51200C8C5C4F51D
:10372400C9C5C5F51200C8C5C2F5C9C5C3F512009F
:10373400C8C5C6F5C9C5C7F5120001010239E8328A
:10374400070B1200AF909CEC19F01200D69A1200ED
:103754004E2A12001200120012001200120012006F
:0A3764001200120012001200120001
:020000040020DA
:10000000FF0FFF0FFF0FFF0FFF0FFF0FFF0FFF0F80
:10001000FF0FFF0FFF0FFF0FFF0FFF0FFF0FFF0F70
:020000040030CA
:10000000FAEFF7DF9FFFFFFFFFFFFFFFFFFFFFFF9D
:10001000FFFFFFFFFFFFFFFFFFFFFFFFFFFFFFFFF0
:04002000FFFFFFFFE0
:00000001FF
