:020000040000FA
:040000000DEF00F010
:040008007CEF13F086
:06001800FF00D9EF15F016
:1026000000000000000000000000000000000000CA
:1026100000000000000000000000000000000000BA
:102620000000000000000000010203040506070886
:0326300050010056
:10263400000E406E3EBE23EF13F021EF13F029EF9E
:1026440013F03D6C3E1ED8B03E2A010E406E3CBED7
:1026540030EF13F02EEF13F036EF13F03B6C3C1E0B
:10266400D8B03C2A010E401A000E426E000E416E94
:102674003D503E10D8B441EF13F043EF13F06BEF2D
:1026840013F0010E3F6E4BEF13F0D8903D363E36FB
:102694003F2A3EAE50EF13F052EF13F047EF13F022
:1026A400D890413642363D503B5C3E503C58D8A011
:1026B4005EEF13F060EF13F065EF13F03D503B5EF7
:1026C4003E503C5A4180D8903E323D323F2E52EF2C
:1026D40013F04050D8B471EF13F073EF13F077EFA9
:1026E40013F0416C421ED8B0422A41C53BF542C5A5
:1026F4003CF51200A1AE81EF13F083EF13F08EEFDF
:1027040013F0B1AE88EF13F08AEF13F08EEF13F0ED
:10271400D3EC16F0D6EF13F09FA093EF13F095EFE0
:1027240013F0A0EF13F0AFA09AEF13F09CEF13F0A7
:10273400A0EF13F067EC17F0D6EF13F0A4A0A5EF09
:1027440013F0A7EF13F0B2EF13F0B4A0ACEF13F053
:10275400AEEF13F0B2EF13F063EC17F0D6EF13F013
:10276400A8A0B7EF13F0B9EF13F0C4EF13F0B8A0BB
:10277400BEEF13F0C0EF13F0C4EF13F05FEC17F0EB
:10278400D6EF13F0A1A8C9EF13F0CBEF13F0D6EFF7
:1027940013F0B1A8D0EF13F0D2EF13F0D6EF13F08B
:1027A400BEEC15F0D6EF13F01100020E0301F96F21
:1027B400000EFA6F000ED86F000EFB6F000ED96F7B
:1027C400000EDA6F000EDB6F000EDC6F000EDF6FA1
:1027D400000EE06F000EE36F000EE46F000EE56F75
:1027E400000EE66F000EE76F000EEA6F000EEB6F4F
:1027F400100EEC6F000EEE6F000EEF6F000EF06F18
:10280400000EF16F000EF26F000EF36F000EF46F06
:10281400100EF56F000EF66F000EF76F120EF86FC4
:10282400000EFC6FAF94AF96B090000E356E000EA4
:10283400366E5AEC17F0000E356E000E366E50EC04
:1028440017F0000E356E000E366E55EC17F0840E40
:102854000301F36F12003250050D6100CCF32BF528
:102864006100D0F32CF52BC535F52CC536F5000EDB
:10287400386E240E376EBEEC16F035C53BF536C502
:102884003CF5000E3E6E0A0E3D6EB2EC14F03BC5F4
:1028940029F53CC52AF5980E295C3A0E2A58D8A089
:1028A40056EF14F058EF14F05CEF14F0010E2D6E97
:1028B4006FEF14F0000E2D6E29C53BF52AC53CF5CB
:1028C400000E3E6E640E3D6EB2EC14F03B502F6E63
:1028D4002F50180DF35029242E6E000E326E120064
:1028E400000EBE6E000EBF6E000EC06E080ECA6EE5
:1028F400EF0EC66EEF0EC76EE70EC86E670E0401CC
:10290400106FF00E086F0069000E216F000E096F42
:10291400000E016F000E116F000E026F000E0A6FA1
:10292400180E126F03690B69136904690C69146941
:10293400080E246F170E0201696F140E706F370EA4
:10294400146F080E3E6F380E156F0B0E3D6F460E5A
:102954000D6F0A0E406F090E3F6F130E716F120058
:10296400000E406E000E3F6E3D503E10D8B4BDEFD9
:1029740014F0BFEF14F0E7EF14F0010E416EC7EF4F
:1029840014F0D8903D363E36412A3EAECCEF14F0DA
:10299400CEEF14F0C3EF14F0D8903F3640363D50DC
:1029A4003B5C3E503C58D8A0DAEF14F0DCEF14F056
:1029B400E1EF14F03D503B5E3E503C5A3F80D890CE
:1029C4003E323D32412ECEEF14F03FC53BF540C5BB
:1029D4003CF51200376E000E366E4BEC17F0356E78
:1029E400040E3518D8B4F9EF14F0FBEF14F00CEF23
:1029F40015F03704D8B401EF15F003EF15F00CEF20
:102A040015F0040E3718D8A40AEF15F00CEF15F0E2
:102A140014EF15F0010103513718F80B3718036F41
:102A240016EF15F0010E366E3650120030C535F52E
:102A3400366A010E386E680E376EBEEC16F035C578
:102A440045F536C546F531C535F5366A010E386E9D
:102A5400680E376EBEEC16F035C53BF536C53CF551
:102A6400000E3E6E200E3D6E1AEC13F03B504524D2
:102A7400436E3C504620446E1200000E03011F6F4B
:102A8400000E206F010E216F0B0E1D6FDC0E1C6FEC
:102A9400B1981C51600074FC37F5386A37C538F5B5
:102AA400376A37104B6E38504C6EA188DE0E356E87
:102AB4002E0E366E32EC17F0210E03011E6F12003B
:102AC4000101018F040EECEC14F00009D8A46DEFA1
:102AD40015F06FEF15F083EF15F0000E01014C6F48
:102AE400380E4D6F000E4E6F000E4F6F600E006F6C
:102AF400970E016F000E026F28EC17F0060EECEC37
:102B040014F01200A9EC16F0D68EBE98C782C698AF
:102B1400BE88030E366EE80E356E0DEC16F02DEC05
:102B240014F0BE98030E366EE80E356E0DEC16F0FA
:102B34002DEC14F018EC15F08AEF15F00DEF00F001
:102B4400AF90D680E60E356E2E0E366E46EC17F03C
:102B54009F80B490D682E40E356E2E0E366E41EC14
:102B640017F0A480B890D684E20E356E2E0E366E21
:102B74003CEC17F0A8801200B1984BC533F54CC556
:102B840034F524EC16F0274A282A285009E1050ECA
:102B9400275CD8A0D0EF15F0D2EF15F0D8EF15F0E0
:102BA40051EC16F0000E286E000E276E1200E80E8F
:102BB400F66E2E0EF76E000EF86E09006100D4F367
:102BC40059F501EE01F1320EEE6AE806FDE1040169
:102BD400080E5D6F000E5E6F000E5F6F000184EFE4
:102BE40015F06DEC17F00FEC17F051505210D8B4EB
:102BF400FEEF15F000EF16F00CEF16F002D80CEF14
:102C040016F00500FA6E5150FD6E5250FE6EFF6ACA
:102C1400FA501200120016EF16F0040E376E3E0E34
:102C2400E82EFED7372EFCD73506D8A03606352831
:102C340006E13628D8A421EF16F023EF16F00FEFA3
:102C440016F0120003011EA52AEF16F02CEF16F061
:102C540035EF16F01E9134501D6F6100CCF41CF357
:102C64001E813AEF16F034501D6F6100CCF41CF352
:102C74001200040E0201946F800E956F180E966F69
:102C8400030E9E6F000E9A6F000E9B6F000E976FDF
:102C9400000E8C6F000E8D6F000E9D6F1200495058
:102CA4004A10D8B458EF16F05AEF16F066EF16F043
:102CB40002D866EF16F00500FA6E4950FD6E4A50D0
:102CC400FE6EFF6AFA501200120047504810D8B442
:102CD4006EEF16F070EF16F07CEF16F002D87CEF72
:102CE40016F00500FA6E4750FD6E4850FE6EFF6AFE
:102CF400FA50120012004D504E10D8B484EF16F062
:102D040086EF16F092EF16F002D892EF16F0050057
:102D1400FA6E4D50FD6E4E50FE6EFF6AFA50120070
:102D240012004F505010D8B49AEF16F09CEF16F0E2
:102D3400A8EF16F002D8A8EF16F00500FA6E4F506F
:102D4400FD6E5050FE6EFF6AFA50120012006BECDA
:102D540017F0E8EC16F03BEC16F0D7EC13F072EC3D
:102D640014F01CEC17F03FEC15F0A2EC15F0FCECA1
:102D740016F062EC15F01200355037026100CCF306
:102D840039F56100D0F33AF535503802F3503A265C
:102D940036503702F3503A2639C535F53AC536F57B
:102DA4001200B19E254A262A265009E1050E255C0B
:102DB400D8A0DFEF16F0E1EF16F0E7EF16F067ECBE
:102DC40016F0000E266E000E256E1200000E000195
:102DD400606F000E616F000E626F000E636F000E75
:102DE400646F000E656F000E666F000E676F000E55
:102DF400686F1200470E03011B6FC20E196F000E9D
:102E0400186FB19EA18EE00E356E2E0E366E37EC25
:102E140017F0800E03011A6F1200312A1F0E31645D
:102E240016EF17F018EF17F01BEF17F0000E316EC6
:102E3400302A1200700E0001AD6F000EAF6F000E4D
:102E4400B36F020EB16F000EB06F1200010E0101DC
:102E5400046F010E056F060E066F000E076F120059
:102E640035C549F536C54AF5120035C547F536C5A9
:102E740048F5120035C54DF536C54EF5120035C579
:102E84004FF536C550F5120035C551F536C552F526
:102E9400120001010239E832070B120035C555F55D
:102EA40036C556F5120035C553F536C554F512002E
:102EB40035C557F536C558F51200B8907DEC16F0B7
:102EC4001200B49093EC16F01200AF90F3EC15F0EE
:102ED4001200D69A1200322A1200120012001200B6
:052EE4001200120001C4
:020000040020DA
:10000000FF0FFF0FFF0FFF0FFF0FFF0FFF0FFF0F80
:10001000FF0FFF0FFF0FFF0FFF0FFF0FFF0FFF0F70
:020000040030CA
:10000000FAFFF7FF9FFFFFFFFFFFFFFFFFFFFFFF6D
:10001000FFFFFFFFFFFFFFFFFFFFFFFFFFFFFFFFF0
:04002000FFFFFFFFE0
:00000001FF
