:020000040000FA
:040000000DEF00F010
:04000800B0EF13F052
:06001800FF00F9EF14F0F7
:1026000000000000000000000000000000000000CA
:1026100000000000000000000000000000000000BA
:102620000000000000000000010203040506070886
:0326300050010056
:10263400010E0301F96F000EFA6F000ED86F000E41
:10264400FB6F000ED96F000EDA6F000EDB6F000E09
:10265400DC6F000EDF6F000EE06F000EE36F000E04
:10266400E46F000EE56F000EE66F000EE76F000EDC
:10267400EA6F000EEB6F100EEC6F000EEE6F000EA3
:10268400EF6F000EF06F000EF16F000EF26F000E90
:10269400F36F000EF46F100EF56F000EF66F000E60
:1026A400F76F120EF86F000EFC6FAF94AF96B090F8
:1026B400000E316E000E326E3DEC15F0000E316EE0
:1026C400000E326E33EC15F0000E316E000E326ED9
:1026D40038EC15F0840E0301F36F1200000EBE6E89
:1026E400000EBF6E000EC06E080ECA6EEF0EC66EF0
:1026F400EF0EC76EE70EC86E670E0401106FF00E82
:10270400086F0069000E216F000E096F000E016F43
:10271400000E116F000E026F000E0A6F180E126F7A
:1027240003690B69136904690C691469080E246F41
:10273400170E0201696F140E706F370E146F080EB6
:102744003E6F380E156F0B0E3D6F460E0D6F0A0E61
:10275400406F090E3F6F130E716F12009FA0B5EF0B
:1027640013F0B7EF13F0C2EF13F0AFA0BCEF13F008
:10277400BEEF13F0C2EF13F04AEC15F0E6EF13F0DE
:10278400A4A0C7EF13F0C9EF13F0D4EF13F0B4A073
:10279400CEEF13F0D0EF13F0D4EF13F046EC15F0B6
:1027A400E6EF13F0A8A0D9EF13F0DBEF13F0E6EF98
:1027B40013F0B8A0E0EF13F0E2EF13F0E6EF13F03C
:1027C40042EC15F0E6EF13F01100336E000E326E9A
:1027D4002EEC15F0316E040E3118D8B4F4EF13F06A
:1027E400F6EF13F007EF14F03304D8B4FCEF13F052
:1027F400FEEF13F007EF14F0040E3318D8A405EF1E
:1028040014F007EF14F00FEF14F001010351331823
:10281400F80B3318036F11EF14F0010E326E3250BF
:1028240012000101018F040EE7EC13F00009D8A493
:102834001EEF14F020EF14F034EF14F0000E010139
:102844004C6F380E4D6F000E4E6F000E4F6F600EC2
:10285400006F970E016F000E026F15EC15F0060E57
:10286400E7EC13F01200AF90D680A40E316E2A0E5E
:10287400326E29EC15F09F80B490D682A20E316E90
:102884002A0E326E24EC15F0A480B890D684A00EE3
:10289400316E2A0E326E1FEC15F0A88012005AEF2A
:1028A40014F0040E336E3E0EE82EFED7332EFCD702
:1028B4003106D8A03206312806E13228D8A465EFC3
:1028C40014F067EF14F053EF14F01200040E020139
:1028D400946F800E956F180E966F030E9E6F000E08
:1028E4009A6F000E9B6F000E976F000E8C6F000E98
:1028F4008D6F000E9D6F120025502610D8B485EF01
:1029040014F087EF14F093EF14F002D893EF14F05F
:102914000500FA6E2550FD6E2650FE6EFF6AFA50D1
:102924001200120027502810D8B49BEF14F09DEF2A
:1029340014F0A9EF14F002D8A9EF14F00500FA6E10
:102944002750FD6E2850FE6EFF6AFA5012001200E6
:1029540029502A10D8B4B1EF14F0B3EF14F0BFEF3C
:1029640014F002D8BFEF14F00500FA6E2950FD6E82
:102974002A50FE6EFF6AFA5012001200E8EC14F0BE
:10298400BE88030E326EE80E316E51EC14F0BE9820
:10299400030E326EE80E316E51EC14F0C2EF14F0F7
:1029A4000DEF00F0000E0001606F000E616F000E6D
:1029B400626F000E636F000E646F000E656F000E91
:1029C400666F000E676F000E686F12004EEC15F014
:1029D400D4EC14F068EC14F01AEC13F070EC13F06F
:1029E40009EC15F035EC14F013EC14F0120001EEC0
:1029F40001F1240EEE6AE806FDE10401080E5D6FA4
:102A0400000E5E6F000E5F6F0001C0EF14F0700ED9
:102A14000001AD6F000EAF6F000EB36F020EB16F09
:102A2400000EB06F1200010E0101046F010E056F5C
:102A3400060E066F000E076F120031C525F532C56C
:102A440026F5120031C527F532C528F5120031C527
:102A540029F532C52AF5120001010239E832070BC3
:102A6400120031C52DF532C52EF5120031C52BF5F6
:102A740032C52CF5120031C52FF532C530F51200E0
:102A8400B8907EEC14F01200B49094EC14F01200A0
:102A9400AF90AAEC14F01200D69A120012001200A1
:022AA40012001E
:020000040020DA
:10000000FF0FFF0FFF0FFF0FFF0FFF0FFF0FFF0F80
:10001000FF0FFF0FFF0FFF0FFF0FFF0FFF0FFF0F70
:020000040030CA
:10000000FAFFF7FF9FFFFFFFFFFFFFFFFFFFFFFF6D
:10001000FFFFFFFFFFFFFFFFFFFFFFFFFFFFFFFFF0
:04002000FFFFFFFFE0
:00000001FF
