:040000000DEF00F010
:040008007CEF17F082
:06001800FF0025EF1AF0C5
:1026000000000000000000000000000000000000CA
:1026100000000000000000000000000000000000BA
:102620000000000000000000010203040506070886
:0326300050010056
:10263400610038F4D9F461003CF4DAF4610078F311
:1026440013F5610078F314F5610078F315F5610072
:1026540078F316F520EE04F00E50D9260F50DA2246
:10266400DFA037EF13F039EF13F073EF13F020EE20
:1026740001F00C50D9260D50DA221338E842F80B39
:10268400F80BDF6E050E106ED89016321532143228
:102694001332102E46EF13F020EE02F00C50D92620
:1026A4000D50DA2261004CF4DFF414C513F515C59E
:1026B40014F516C515F5166A20EE03F00C50D9264C
:1026C4000D50DA2213501F0BDF6E050E106ED890DA
:1026D4001632153214321332102E69EF13F08BEFC9
:1026E40013F020EE03F00C50D9260D50DA22000E20
:1026F400DF6E10EE02F00C50E1260D50E222DFC432
:10270400E7F420EE01F00C50D9260D50DA22E7C48C
:10271400DFF4610030F4D9F4610034F4DAF46100D8
:102724004CF4DFF414C513F515C514F516C515F5E9
:10273400166A13C510F5070E101620EE01F00C50A2
:10274400D9260D50DA221050DF1220EE04F00E507C
:10275400D9260F50DA22DF30E8320F0B126E20EE4A
:1027640004F00E50D9260F50DA22DFB0BCEF13F07C
:10277400C0EF13F0106A102AC1EF13F0106A10387A
:10278400F00B121220EE04F00E50D9260F50DA226C
:10279400DFB2CFEF13F0D3EF13F0200E106ED4EFAF
:1027A40013F0106A1050121220EE04F00E50D926C5
:1027B4000F50DA22DFBEE1EF13F0E5EF13F0400E25
:1027C400106EE6EF13F0106A1050121220EE04F0AF
:1027D4000E50D9260F50DA22DFBCF3EF13F0F7EFD7
:1027E40013F0800E106EF8EF13F0106A10501212EE
:1027F40020EE04F00C50D9260D50DA22610048F482
:10280400DFF420EE04F00E50D9260F50DA22DFB2A6
:102814000EEF14F010EF14F03CEF14F0080E0C243B
:10282400016E000E0D20026E20EE05F00E50D9262A
:102834000F50DA22610078F303F5610074F304F5B4
:1028440020EE04F00E50D9260F50DA22DF30E832A1
:102854000F0B106E116A270E1024F66E260E11202F
:10286400F76EF86A000EF8220800F550056E066A45
:10287400CCEC19F0120084C501F585C502F586C5B6
:1028840003F587C504F5640E056E000E066E000E92
:10289400076E000E086E97EC19F001C542F502C5EB
:1028A40043F503C544F504C545F542C501F543C5E3
:1028B40002F544C503F545C504F588C505F589C584
:1028C40006F58AC507F58BC508F597EC19F001C51F
:1028D40042F502C543F503C544F504C545F542C5B3
:1028E40001F543C502F544C503F545C504F546C5E0
:1028F40005F547C506F548C507F549C508F536EC9D
:1029040018F001C542F502C543F503C544F504C5F5
:1029140045F542C501F543C502F544C503F545C572
:1029240004F50A0E056E000E066E000E076E000E0C
:10293400086E97EC19F001C53EF502C53FF503C5D5
:1029440040F504C541F53EC501F53FC502F540C556
:1029540003F541C504F5F40E056E010E066E000E76
:10296400076E000E086E36EC18F001C53EF502C580
:102974003FF503C540F504C541F53EC501F53FC526
:1029840002F540C503F541C504F5240E056E000E9D
:10299400066E000E076E000E086E97EC19F001C566
:1029A4003AF502C53BF503C53CF504C53DF53AC50A
:1029B40001F53BC502F53CC503F53DC504F50A0E1A
:1029C400056E000E066E000E076E000E086E36ECE5
:1029D40018F001C53AF502C53BF503C53CF504C53D
:1029E4003DF53D503C100BE1980E3A5C3A0E3B58D5
:1029F400D8A0FFEF14F001EF15F005EF15F0010E6C
:102A0400516E20EF15F0000E516E3AC501F53BC52D
:102A140002F53CC503F53DC504F5640E056E000ED4
:102A2400066E000E076E000E086E36EC18F00150AC
:102A3400536E53509C0DF3503A24526E000E050110
:102A4400846F000E856F000E866F000E876F120074
:102A540001011DAF30EF15F032EF15F041EF15F025
:102A640002D83FEF15F00500FA6E05019851FD6E8E
:102A74009951FE6EFF6AFA50120001011D9F1DADAF
:102A840046EF15F048EF15F057EF15F002D855EF63
:102A940015F00500FA6E05019651FD6E9751FE6E14
:102AA400FF6AFA50120001011D9D1DAB5CEF15F089
:102AB4005EEF15F06DEF15F002D86BEF15F0050021
:102AC400FA6E05019451FD6E9551FE6EFF6AFA503F
:102AD400120001011D9B1CA772EF15F074EF15F095
:102AE40083EF15F002D881EF15F00500FA6E0501A9
:102AF4009251FD6E9351FE6EFF6AFA50120001016D
:102B04001C971DA988EF15F08AEF15F099EF15F0C1
:102B140002D897EF15F00500FA6E05019051FD6E8D
:102B24009151FE6EFF6AFA50120001011D991DA514
:102B34009EEF15F0A0EF15F0B6EF15F002D8ADEF4B
:102B440015F00500FA6E05018E51FD6E8F51FE6E73
:102B5400FF6AFA501200010154A9B3EF15F0B5EF62
:102B640015F0B6EF15F054991DA7BBEF15F0BDEFA6
:102B740015F0D3EF15F002D8CAEF15F00500FA6E80
:102B840005018C51FD6E8D51FE6EFF6AFA501200E4
:102B9400010160A7D0EF15F0D2EF15F0D3EF15F0D7
:102BA4006097AE9C12005DEF16F05150D8A4DDEF93
:102BB40015F0DFEF15F07AEF16F0010E1D6E030E1F
:102BC4001E6E000E1F6E000E206E080E216E000E8B
:102BD400226E000E236E000E246E000E256E53C569
:102BE40026F552C527F555C528F554C529F57BECBE
:102BF40016F000F0070E1D6E030E1E6E000E1F6E03
:102C0400000E206E080E216E000E226E000E236E42
:102C1400000E246E000E256E53C526F552C527F509
:102C240055C528F554C529F57BEC16F07AEF16F056
:102C34005150D8A420EF16F022EF16F07AEF16F0D8
:102C4400040E1D6E030E1E6E000E1F6E000E206E0F
:102C5400080E216E000E226E000E236E000E246EEE
:102C6400000E256E53C526F552C527F555C528F522
:102C740054C529F57BEC16F000F00A0E1D6E030E08
:102C84001E6E000E1F6E000E206E080E216E000ECA
:102C9400226E000E236E000E246E000E256E53C5A8
:102CA40026F552C527F555C528F554C529F57BECFD
:102CB40016F07AEF16F05050346E356A3550000A2B
:102CC400D8B467EF16F07AEF16F03450010AD8B48E
:102CD400D7EF15F0030AD8B41AEF16F0010AD8B4E6
:102CE4007AEF16F0070AD8B47AEF16F07AEF16F0F6
:102CF400120022502B6E2A6A000E2A142C6EFF0E2C
:102D04002B142D6E23502C1224502B6E2A6A000E85
:102D14002A142E6EFF0E2B142F6E25502E122650C1
:102D24002B6E2A6A000E2A14306EFF0E2B14316E9D
:102D34002750301228502B6E2A6A000E2A14326E45
:102D4400FF0E2B14336E2950321222C5A4F523C56D
:102D5400A5F524C5A6F525C5A7F526C5A8F527C557
:102D6400A9F528C5AAF529C5ABF51DC557F51EC596
:102D740058F51FC559F520C55AF55B9C5B9E5B92BF
:102D84005B9021C52AF52A462A465B502A18C30BB4
:102D94002A185B6EA40E5C6E050E5D6E5FEC1CF073
:102DA400E806D8A4D8EF16F0DAEF16F0DBEF16F049
:102DB40000F054EC1CF0E806D8A4E3EF16F0E5EFBD
:102DC40016F0E6EF16F000F049EC1CF0E806D8A483
:102DD400EEEF16F0F0EF16F0F1EF16F000F019EC4C
:102DE4001CF0E806D8A4F9EF16F0FBEF16F0FCEFA0
:102DF40016F000F0000EF4EC1BF02A6E2AA005EF8A
:102E040017F007EF17F00FEF17F0570E176E050EB8
:102E1400186E000ED4EC18F000F01200076E000ECD
:102E2400086E20EE04F00250D9260350DA22DF5057
:102E3400096E09AE20EF17F022EF17F02DEF17F00F
:102E4400D6EC1CF0060AD8A42AEF17F02CEF17F0E2
:102E54002DEF17F008820930E8320F0B046E080ECC
:102E6400046437EF17F039EF17F04BEF17F009ACA4
:102E74003EEF17F040EF17F04AEF17F0D6EC1CF0D6
:102E8400060AD8A448EF17F04AEF17F04BEF17F0F3
:102E940008802F0EF66E260EF76EF86A08006100A1
:102EA400D4F304F50930E8320F0B056E066A270ED9
:102EB4000524F66E260E0620F76EF86A000EF82238
:102EC4000800F550045CD8B06AEF17F06CEF17F007
:102ED4006DEF17F00880075032EC1CF00009D8A4FD
:102EE40076EF17F078EF17F07AEF17F0030E081269
:102EF400085012006100D8F336F56100DCF337F5B1
:102F04006100E0F338F56100D4F339F5A1A88DEF41
:102F140017F08FEF17F09AEF17F0B1A894EF17F0AE
:102F240096EF17F09AEF17F06FEC1AF0D0EF17F056
:102F3400A1AE9FEF17F0A1EF17F0ACEF17F0B1AE11
:102F4400A6EF17F0A8EF17F0ACEF17F0A3EC1BF007
:102F5400D0EF17F09FA0B1EF17F0B3EF17F0BEEF6B
:102F640017F0AFA0B8EF17F0BAEF17F0BEEF17F0F5
:102F7400DBEC1CF0D0EF17F09EACC3EF17F0C5EFFD
:102F840017F0D0EF17F0AEACCAEF17F0CCEF17F094
:102F9400D0EF17F02AEC15F0D0EF17F06100E4F44D
:102FA400F5F46100E0F4F8F46100DCF4F7F4610096
:102FB400D8F4F6F41100020E0301F96F000EFA6F53
:102FC400000ED86F000EFB6F000ED96F000EDA6F83
:102FD400000EDB6F000EDC6F000EDF6F000EE06F83
:102FE400000EE36F000EE46F000EE56F000EE66F57
:102FF400000EE76F000EEA6F000EEB6F100EEC6F21
:10300400000EEE6F000EEF6F000EF06F000EF16F0A
:10301400000EF26F000EF36F000EF46F100EF56FDA
:10302400000EF66F000EF76F120EF86F000EFC6FB5
:10303400AF94AF96B090000E0501D06F000ED16F23
:10304400D1EC1CF0000E0501D06F000ED16FC7EC5F
:103054001CF0000E0501D06F000ED16FCCEC1CF0FB
:10306400840E0301F36F1200000E096E000E0A6E47
:10307400000E0B6E000E0C6E0550061007100810A3
:10308400D8B447EF18F049EF18F07FEF18F0010EAD
:103094000D6E53EF18F0D89005360636073608360D
:1030A4000D2A08AE58EF18F05AEF18F04DEF18F04B
:1030B400D89009360A360B360C360550015C06509A
:1030C40002580750035808500458D8A06CEF18F061
:1030D4006EEF18F077EF18F00550015E0650025AB3
:1030E4000750035A0850045A0980D890083207320E
:1030F400063205320D2E5AEF18F009C501F50AC53E
:1031040002F50BC503F50CC504F512000501D26FD9
:10311400000E0501D16F9FEC1CF00501D06F040E69
:10312400D019D8B498EF18F09AEF18F0ABEF18F064
:10313400D205D8B4A0EF18F0A2EF18F0ABEF18F056
:10314400040ED219D8A4A9EF18F0ABEF18F0D0EF01
:1031540018F0010103510501D219F80BD21901012C
:10316400036FC2EF18F001011DA9BBEF18F0BDEF0A
:1031740018F0C2EF18F0020E0501D16FD2EF18F06B
:103184000239E832070B0501D219D8A4CCEF18F0A4
:10319400CEEF18F0B5EF18F0D2EF18F0010ED16FA2
:1031A400D15112001C6E1C508EEC1AF00009D8B4D8
:1031B400DEEF18F0E0EF18F01DEF19F017C502F577
:1031C40018C503F51C5010EC17F0196E1950D8A44B
:1031D400EEEF18F0F0EF18F01DEF19F01C500C0D85
:1031E400580EF324D96E010EF420DA6E610078F3E0
:1031F4001AF5610074F31BF51A501B10D8B405EFCF
:1032040019F007EF19F01DEF19F01AC50CF51BC5DD
:103214000DF517C50EF518C50FF51AEC13F01C5073
:103224000C0D510EF324D96E010EF420DA6E030E48
:10323400DF121DEF19F01200D20E0501D06F390E06
:10324400D16FB8EC1CF0D40E0501D06F390ED16FDC
:10325400BDEC1CF0D60E0501D06F390ED16FC2EC57
:103264001CF0D00E0501D06F390ED16FB3EC1CF0F9
:10327400CC0E0501D06F390ED16FA9EC1CF0CA0E2B
:103284000501D06F390ED16FA4EC1CF0CE0E0501F0
:10329400D06F390ED16FAEEC1CF0AE9C000E010164
:1032A4001C6F000E1D6F080E1E6FFC0E1F6F9E8C90
:1032B4001200000EBE6E000EBF6E000EC06E080E31
:1032C400CA6EEF0EC66ECF0EC76EE70EC86E670EDF
:1032D4000401106FF60E086F0069000E216F000ED6
:1032E400096F000E016F000E116F000E026F000EC9
:1032F4000A6F180E126F03690B69136904690C696C
:103304001469080E246F170E0201696F140E706F92
:10331400370E146F080E3E6F380E156F0B0E3D6F8F
:10332400460E0D6F130E716F1200000E096E000E23
:103334000A6E000E0B6E000E0C6E01A0A4EF19F0C5
:10334400A6EF19F0AEEF19F00550092606500A222F
:1033540007500B2208500C22D89005360636073643
:103364000836D8900432033202320132015002107E
:1033740003100410D8A4C1EF19F0C3EF19F09FEFA4
:1033840019F009C501F50AC502F50BC503F50CC50D
:1033940004F5120003C509F504C50AF501C507F5CE
:1033A40002C508F5EBEF19F0610024F4D9F46100CB
:1033B40028F4DAF4DF500B6E094A0A2A61001CF47F
:1033C400D9F4610020F4DAF461002CF4DFF4074A44
:1033D400082A0506D8A00606052806E10628D8A46A
:1033E400F6EF19F0F8EF19F0D6EF19F01200010119
:1033F400018F040E88EC18F00009D8A404EF1AF029
:1034040006EF1AF024EF1AF0000E01014C6F260E9D
:103414004D6F000E4E6F000E4F6F600E006F970ED3
:10342400016F100E026F7EEC1CF06AEC1CF074EC61
:103434001CF0E1EC1CF01BEC1BF01EEC19F0060E6A
:1034440088EC18F01200100EF66E380EF76E000EAF
:10345400F86E01EEA2F110EE22F00900F5C4EEF4CC
:10346400E550E150FAE101EE60F1420EEE6AE80641
:10347400FDE101EE3AF1240EEE6AE806FDE10401F5
:10348400080E5D6F000E5E6F000E5F6F0001CBEFE4
:103494001AF0000E03011F6F000E206F010E216F42
:1034A4000B0E1D6FDC0E1C6FB1981C51600074FC78
:1034B400D2F50501D36BD2C5D3F5D26BD2115E6EB2
:1034C400D3515F6EA188C40ED06F390ED16F90ECCA
:1034D4001CF0210E03011E6F1200B1985EC501F5A8
:1034E4005FC502F532EC1BF04E4A4F2A4F5009E1FA
:1034F400050E4E5CD8A081EF1AF083EF1AF08DEF21
:103504001AF03DEC14F0D5EC15F049EC1BF0000E6C
:103514004F6E000E4E6E1200026E000E016E040E0F
:10352400026097EF1AF099EF1AF0ABEF1AF002501D
:103534000C0D500EF324D96E010EF420DA6E010145
:10354400DFAEA7EF1AF0A9EF1AF0ABEF1AF0010EF5
:10355400016E01501200562A56C501F5026A036A2B
:10356400046A4650015C4750025848500358495079
:103574000458D8A0C0EF1AF0C2EF1AF0CAEF1AF03C
:10358400000E566E4A4A4B2A4AC555F54B50546EA6
:10359400120077EC1BF0E0EC1BF0C79ABF9AD68EB2
:1035A400BE88030E0501D16FE80ED06F01EC1BF04D
:1035B400BE98030E0501D16FE80ED06F01EC1BF02D
:1035C400D2EF1AF00DEF00F088EC1CF0ADEC1AF01D
:1035D4000501C851C911D8B4F2EF1AF0F4EF1AF08A
:1035E40000EF1BF002D800EF1BF00500FA6EC85183
:1035F400FD6EC951FE6EFF6AFA50120012000CEF04
:103604001BF0040E0501D26F3D0EE82EFED7D22F1B
:10361400FCD700D00501D007D8A0D107D02906E1F6
:10362400D129D8A418EF1BF01AEF1BF003EF1BF0FD
:103634001200000E0501D06FD051020DA30EF32429
:10364400D96E050EF420DA6E000EDF6ED02BD05149
:10365400D8B42FEF1BF031EF1BF01EEF1BF012005C
:1036640003011EA538EF1BF03AEF1BF043EF1BF0EC
:103674001E9102501D6F610004F41CF31E8148EF7B
:103684001BF002501D6F610004F41CF312000501CD
:10369400C651C711D8B451EF1BF053EF1BF05FEFC5
:1036A4001BF002D85FEF1BF00500FA6EC651FD6EE9
:1036B400C751FE6EFF6AFA50120012000501C45190
:1036C400C511D8B468EF1BF06AEF1BF076EF1BF05E
:1036D40002D876EF1BF00500FA6EC451FD6EC55199
:1036E400FE6EFF6AFA50120012005BEC19F0BE88FD
:1036F400DFEC1CF0CCEC1BF08DEC1BF0DDEC17F0D8
:1037040026EC1CF04BEC1AF03EEC1CF0B8EC1BF071
:10371400F9EC19F01200040E0201946F800E956FFB
:10372400180E966F030E9E6F000E9A6F000E9B6F1D
:10373400000E976F000E8C6F000E8D6F000E9D6F44
:103744001200B19E4C4A4D2A4D5009E1050E4C5CC5
:10375400D8A0AFEF1BF0B1EF1BF0B7EF1BF060EC9C
:103764001BF0000E4D6E000E4C6E1200470E03014E
:103774001B6FC20E196F000E186FB19EA18EC60E7C
:103784000501D06F390ED16F95EC1CF0800E03014A
:103794001A6F1200000E0001606F000E616F000EC0
:1037A400626F000E636F000E646F000E656F000E93
:1037B400666F000E676F000E686F1200020E506E87
:1037C400A70E0501886F000E896F000E8A6F000E28
:1037D4008B6F100E466E000E476E000E486E000E84
:1037E400496E1200046E000E036E04508EEC1AF043
:1037F4000009D8B400EF1CF002EF1CF006EF1CF037
:10380400045032EC1CF0036E0350120001004255C8
:103814004646455243414E000000000000000000AF
:10382400000000000000000000000000000054EC54
:103834001CF00009D8B421EF1CF024EF1CF0010E99
:1038440025EF1CF0000E1200700E0001AD6F000E8B
:10385400AF6F000EB36F020EB16F000EB06F1200A7
:10386400016E01500C0D540EF324D96E010EF42098
:10387400DA6EDF50010B1200AF90D680C80E05013E
:10388400D06F390ED16F9AEC1CF09F8012000101A9
:1038940036B54FEF1CF052EF1CF0010E53EF1CF045
:1038A400000E1200010136B95AEF1CF05DEF1CF056
:1038B400010E5EEF1CF0000E1200010136BB65EF35
:1038C4001CF068EF1CF0010E69EF1CF0000E1200F2
:1038D400100E0101506F040E516F600E526F050EF1
:1038E400536F1200080E01015C6F040E5D6F600ED1
:1038F4005E6F050E5F6F1200010E0101046F010E71
:10390400056F060E066F000E076F1200010E05010B
:103914008427000E8523862387231200D0C5C6F58D
:10392400D1C5C7F51200D0C5C4F5D1C5C5F512007F
:10393400D0C5C8F5D1C5C9F5120001010239E83274
:10394400070B1200D0C58EF5D1C58FF51200D0C576
:1039540090F5D1C591F51200D0C58CF5D1C58DF582
:103964001200D0C592F5D1C593F51200D0C598F5D3
:10397400D1C599F51200D0C596F5D1C597F51200B9
:10398400D0C594F5D1C595F51200D0C5CCF5D1C5F7
:10399400CDF51200D0C5CAF5D1C5CBF51200D0C5FE
:1039A400CEF5D1C5CFF5120001010239E832070B7B
:1039B4001200AF90E6EC1AF01200D69A1200120030
:1039C4001200120012001200120012001200120063
:0439D40012001200CB
:020000040020DA
:10000000FF0FFF0FFF0FFF0FFF0FFF0FFF0FFF0F80
:10001000FF0FFF0FFF0FFF0FFF0FFF0FFF0FFF0F70
:020000040030CA
:10000000FAEFF7DF9FFFFFFFFFFFFFFFFFFFFFFF9D
:10001000FFFFFFFFFFFFFFFFFFFFFFFFFFFFFFFFF0
:04002000FFFFFFFFE0
:00000001FF
