:040000000DEF00F010
:0400080014EF18F0E9
:06001800FF00EBEF1AF0FF
:1026000000000000000000000000000000000000CA
:1026100000000000000000000000000000000000BA
:102620000000000000000000010203040506070886
:0326300050010056
:10263400610038F4D9F461003CF4DAF4610078F311
:1026440013F5610078F314F5610078F315F5610072
:1026540078F316F520EE04F00E50D9260F50DA2246
:10266400DFA037EF13F039EF13F073EF13F020EE20
:1026740001F00C50D9260D50DA221338E842F80B39
:10268400F80BDF6E050E106ED89016321532143228
:102694001332102E46EF13F020EE02F00C50D92620
:1026A4000D50DA2261004CF4DFF414C513F515C59E
:1026B40014F516C515F5166A20EE03F00C50D9264C
:1026C4000D50DA2213501F0BDF6E050E106ED890DA
:1026D4001632153214321332102E69EF13F08BEFC9
:1026E40013F020EE03F00C50D9260D50DA22000E20
:1026F400DF6E10EE02F00C50E1260D50E222DFC432
:10270400E7F420EE01F00C50D9260D50DA22E7C48C
:10271400DFF4610030F4D9F4610034F4DAF46100D8
:102724004CF4DFF414C513F515C514F516C515F5E9
:10273400166A13C510F5070E101620EE01F00C50A2
:10274400D9260D50DA221050DF1220EE04F00E507C
:10275400D9260F50DA22DF30E8320F0B126E20EE4A
:1027640004F00E50D9260F50DA22DFB0BCEF13F07C
:10277400C0EF13F0106A102AC1EF13F0106A10387A
:10278400F00B121220EE04F00E50D9260F50DA226C
:10279400DFB2CFEF13F0D3EF13F0200E106ED4EFAF
:1027A40013F0106A1050121220EE04F00E50D926C5
:1027B4000F50DA22DFBEE1EF13F0E5EF13F0400E25
:1027C400106EE6EF13F0106A1050121220EE04F0AF
:1027D4000E50D9260F50DA22DFBCF3EF13F0F7EFD7
:1027E40013F0800E106EF8EF13F0106A10501212EE
:1027F40020EE04F00C50D9260D50DA22610048F482
:10280400DFF420EE04F00E50D9260F50DA22DFB2A6
:102814000EEF14F010EF14F03CEF14F0080E0C243B
:10282400016E000E0D20026E20EE05F00E50D9262A
:102834000F50DA22610078F303F5610074F304F5B4
:1028440020EE04F00E50D9260F50DA22DF30E832A1
:102854000F0B106E116A270E1024F66E260E11202F
:10286400F76EF86A000EF8220800F550056E066A45
:1028740092EC1AF0120084C501F585C502F586C5EF
:1028840003F587C504F5640E056E000E066E000E92
:10289400076E000E086E2FEC1AF001C542F502C552
:1028A40043F503C544F504C545F542C501F543C5E3
:1028B40002F544C503F545C504F588C505F589C584
:1028C40006F58AC507F58BC508F52FEC1AF001C586
:1028D40042F502C543F503C544F504C545F542C5B3
:1028E40001F543C502F544C503F545C504F546C5E0
:1028F40005F547C506F548C507F549C508F5CEEC05
:1029040018F001C542F502C543F503C544F504C5F5
:1029140045F542C501F543C502F544C503F545C572
:1029240004F50A0E056E000E066E000E076E000E0C
:10293400086E2FEC1AF001C53EF502C53FF503C53C
:1029440040F504C541F53EC501F53FC502F540C556
:1029540003F541C504F5F40E056E010E066E000E76
:10296400076E000E086ECEEC18F001C53EF502C5E8
:102974003FF503C540F504C541F53EC501F53FC526
:1029840002F540C503F541C504F5240E056E000E9D
:10299400066E000E076E000E086E2FEC1AF001C5CD
:1029A4003AF502C53BF503C53CF504C53DF53AC50A
:1029B40001F53BC502F53CC503F53DC504F50A0E1A
:1029C400056E000E066E000E076E000E086ECEEC4D
:1029D40018F001C53AF502C53BF503C53CF504C53D
:1029E4003DF53D503C100BE1980E3A5C3A0E3B58D5
:1029F400D8A0FFEF14F001EF15F005EF15F0010E6C
:102A0400516E20EF15F0000E516E3AC501F53BC52D
:102A140002F53CC503F53DC504F5640E056E000ED4
:102A2400066E000E076E000E086ECEEC18F0015014
:102A3400536E53509C0DF3503A24526E000E050110
:102A4400846F000E856F000E866F000E876F120074
:102A540001011DAF30EF15F032EF15F041EF15F025
:102A640002D83FEF15F00500FA6E05019A51FD6E8C
:102A74009B51FE6EFF6AFA50120001011D9F1DADAD
:102A840046EF15F048EF15F057EF15F002D855EF63
:102A940015F00500FA6E05019851FD6E9951FE6E10
:102AA400FF6AFA50120001011D9D1DAB5CEF15F089
:102AB4005EEF15F06DEF15F002D86BEF15F0050021
:102AC400FA6E05019651FD6E9751FE6EFF6AFA503B
:102AD400120001011D9B1CA772EF15F074EF15F095
:102AE40083EF15F002D881EF15F00500FA6E0501A9
:102AF4009451FD6E9551FE6EFF6AFA501200010169
:102B04001C971DA988EF15F08AEF15F099EF15F0C1
:102B140002D897EF15F00500FA6E05019251FD6E8B
:102B24009351FE6EFF6AFA50120001011D991DA512
:102B34009EEF15F0A0EF15F0B6EF15F002D8ADEF4B
:102B440015F00500FA6E05019051FD6E9151FE6E6F
:102B5400FF6AFA501200010154A9B3EF15F0B5EF62
:102B640015F0B6EF15F054991DA7BBEF15F0BDEFA6
:102B740015F0D3EF15F002D8CAEF15F00500FA6E80
:102B840005018E51FD6E8F51FE6EFF6AFA501200E0
:102B9400010160A7D0EF15F0D2EF15F0D3EF15F0D7
:102BA4006097AE9C12005DEF16F05150D8A4DDEF93
:102BB40015F0DFEF15F07AEF16F0010E1D6E030E1F
:102BC4001E6E000E1F6E000E206E080E216E000E8B
:102BD400226E000E236E000E246E000E256E53C569
:102BE40026F552C527F555C528F554C529F513EC26
:102BF40017F000F0070E1D6E030E1E6E000E1F6E02
:102C0400000E206E080E216E000E226E000E236E42
:102C1400000E246E000E256E53C526F552C527F509
:102C240055C528F554C529F513EC17F07AEF16F0BD
:102C34005150D8A420EF16F022EF16F07AEF16F0D8
:102C4400040E1D6E030E1E6E000E1F6E000E206E0F
:102C5400080E216E000E226E000E236E000E246EEE
:102C6400000E256E53C526F552C527F555C528F522
:102C740054C529F513EC17F000F00A0E1D6E030E6F
:102C84001E6E000E1F6E000E206E080E216E000ECA
:102C9400226E000E236E000E246E000E256E53C5A8
:102CA40026F552C527F555C528F554C529F513EC65
:102CB40017F07AEF16F05050346E356A3550000A2A
:102CC400D8B467EF16F07AEF16F03450010AD8B48E
:102CD400D7EF15F0030AD8B41AEF16F0010AD8B4E6
:102CE4007AEF16F0070AD8B47AEF16F07AEF16F0F6
:102CF4001200F5EF16F0020E1D6E030E1E6E000E8E
:102D04001F6E000E206E010E216E51C522F5000EBD
:102D1400236E000E246E000E256E000E266E000E2D
:102D2400276E000E286E000E296E13EC17F012EFBA
:102D340017F0050E1D6E030E1E6E000E1F6E000EA4
:102D4400206E010E216E51C522F5000E236E000E79
:102D5400246E000E256E000E266E000E276E000EE9
:102D6400286E000E296E13EC17F012EF17F0080E00
:102D74001D6E030E1E6E000E1F6E000E206E010EE1
:102D8400216E51C522F5000E236E000E246E000E36
:102D9400256E000E266E000E276E000E286E000EA5
:102DA400296E13EC17F012EF17F00B0E1D6E030EC5
:102DB4001E6E000E1F6E000E206E010E216E51C598
:102DC40022F5000E236E000E246E000E256E000EFA
:102DD400266E000E276E000E286E000E296E13EC70
:102DE40017F012EF17F05050346E356A3550000A60
:102DF400D8B4FFEF16F012EF17F03450010AD8B42C
:102E04007DEF16F0030AD8B49BEF16F0010AD8B48C
:102E1400B9EF16F0070AD8B4D7EF16F012EF17F08F
:102E2400120022502B6E2A6A000E2A142C6EFF0EFA
:102E34002B142D6E23502C1224502B6E2A6A000E54
:102E44002A142E6EFF0E2B142F6E25502E12265090
:102E54002B6E2A6A000E2A14306EFF0E2B14316E6C
:102E64002750301228502B6E2A6A000E2A14326E14
:102E7400FF0E2B14336E2950321222C5A6F523C53A
:102E8400A7F524C5A8F525C5A9F526C5AAF527C51E
:102E9400ABF528C5ACF529C5ADF51DC557F51EC55F
:102EA40058F51FC559F520C55AF55B9C5B9E5B928E
:102EB4005B9021C52AF52A462A465B502A18C30B83
:102EC4002A185B6EA60E5C6E050E5D6E06EC1DF098
:102ED400E806D8A470EF17F072EF17F073EF17F04D
:102EE40000F0FBEC1CF0E806D8A47BEF17F07DEFB4
:102EF40017F07EEF17F000F0F0EC1CF0E806D8A411
:102F040086EF17F088EF17F089EF17F000F0C0ECA8
:102F14001CF0E806D8A491EF17F093EF17F094EFA4
:102F240017F000F0000E9BEC1CF02A6E2AA09DEF17
:102F340017F09FEF17F0A7EF17F0570E176E050E57
:102F4400186E000E6CEC19F000F01200076E000E03
:102F5400086E20EE04F00250D9260350DA22DF5026
:102F6400096E09AEB8EF17F0BAEF17F0C5EF17F016
:102F74007DEC1DF0060AD8A4C2EF17F0C4EF17F0D9
:102F8400C5EF17F008820930E8320F0B046E080E03
:102F94000464CFEF17F0D1EF17F0E3EF17F009ACAB
:102FA400D6EF17F0D8EF17F0E2EF17F07DEC1DF035
:102FB400060AD8A4E0EF17F0E2EF17F0E3EF17F0FA
:102FC40008802F0EF66E260EF76EF86A0800610070
:102FD400D4F304F50930E8320F0B056E066A270EA8
:102FE4000524F66E260E0620F76EF86A000EF82207
:102FF4000800F550045CD8B002EF18F004EF18F0A4
:1030040005EF18F008800750D9EC1CF00009D8A48B
:103014000EEF18F010EF18F012EF18F0030E08126C
:10302400085012006100D8F336F56100DCF337F57F
:103034006100E0F338F56100D4F339F5A1A825EF78
:1030440018F027EF18F032EF18F0B1A82CEF18F0B1
:103054002EEF18F032EF18F064EC1AF068EF18F065
:10306400A1AE37EF18F039EF18F044EF18F0B1AE15
:103074003EEF18F040EF18F044EF18F04AEC1CF063
:1030840068EF18F09FA049EF18F04BEF18F056EFD7
:1030940018F0AFA050EF18F052EF18F056EF18F0F8
:1030A40082EC1DF068EF18F09EAC5BEF18F05DEF5A
:1030B40018F068EF18F0AEAC62EF18F064EF18F097
:1030C40068EF18F02AEC15F068EF18F06100E4F4EA
:1030D400F5F46100E0F4F8F46100DCF4F7F4610065
:1030E400D8F4F6F41100020E0301F96F000EFA6F22
:1030F400000ED86F000EFB6F000ED96F000EDA6F52
:10310400000EDB6F000EDC6F000EDF6F000EE06F51
:10311400000EE36F000EE46F000EE56F000EE66F25
:10312400000EE76F000EEA6F000EEB6F100EEC6FEF
:10313400000EEE6F000EEF6F000EF06F000EF16FD9
:10314400000EF26F000EF36F000EF46F100EF56FA9
:10315400000EF66F000EF76F120EF86F000EFC6F84
:10316400AF94AF96B090000E0501D26F000ED36FEE
:1031740078EC1DF0000E0501D26F000ED36F6EECDB
:103184001DF0000E0501D26F000ED36F73EC1DF01D
:10319400840E0301F36F1200000E096E000E0A6E16
:1031A400000E0B6E000E0C6E055006100710081072
:1031B400D8B4DFEF18F0E1EF18F017EF19F0010EB3
:1031C4000D6EEBEF18F0D890053606360736083644
:1031D4000D2A08AEF0EF18F0F2EF18F0E5EF18F052
:1031E400D89009360A360B360C360550015C065069
:1031F40002580750035808500458D8A004EF19F097
:1032040006EF19F00FEF19F00550015E0650025A4F
:103214000750035A0850045A0980D89008320732DC
:10322400063205320D2EF2EF18F009C501F50AC574
:1032340002F50BC503F50CC504F512000501D46FA6
:10324400000E0501D36F46EC1DF00501D26F040E8C
:10325400D219D8B430EF19F032EF19F043EF19F066
:10326400D405D8B438EF19F03AEF19F043EF19F058
:10327400040ED419D8A441EF19F043EF19F068EF04
:1032840019F0010103510501D419F80BD4190101F6
:10329400036F5AEF19F001011DA953EF19F055EF0F
:1032A40019F05AEF19F0020E0501D36F6AEF19F005
:1032B4000239E832070B0501D419D8A464EF19F0D8
:1032C40066EF19F04DEF19F06AEF19F0010ED36FA4
:1032D400D35112001C6E1C5035EC1BF00009D8B4FD
:1032E40076EF19F078EF19F0B5EF19F017C502F57C
:1032F40018C503F51C50A8EC17F0196E1950D8A482
:1033040086EF19F088EF19F0B5EF19F01C500C0D89
:10331400580EF324D96E010EF420DA6E610078F3AE
:103324001AF5610074F31BF51A501B10D8B49DEF05
:1033340019F09FEF19F0B5EF19F01AC50CF51BC57C
:103344000DF517C50EF518C50FF51AEC13F01C5042
:103354000C0D510EF324D96E010EF420DA6E030E17
:10336400DF12B5EF19F01200200E0501D26F3B0EEB
:10337400D36F5FEC1DF0220E0501D26F3B0ED36FAD
:1033840064EC1DF0240E0501D26F3B0ED36F69EC83
:103394001DF01E0E0501D26F3B0ED36F5AEC1DF0CB
:1033A4001A0E0501D26F3B0ED36F50EC1DF0180EB0
:1033B4000501D26F3B0ED36F4BEC1DF01C0E0501C3
:1033C400D26F3B0ED36F55EC1DF0AE9C000E010185
:1033D4001C6F000E1D6F080E1E6FFC0E1F6F9E8C5F
:1033E4001200000EBE6E000EBF6E000EC06E080E00
:1033F400CA6EEF0EC66ECF0EC76EE70EC86E670EAE
:103404000401106FF60E086F0069000E216F000EA4
:10341400096F000E016F000E116F000E026F000E97
:103424000A6F180E126F03690B69136904690C693A
:103434001469080E246F170E0201696F140E706F61
:10344400370E146F080E3E6F380E156F0B0E3D6F5E
:10345400460E0D6F130E716F1200000E096E000EF2
:103464000A6E000E0B6E000E0C6E01A03CEF1AF0FB
:103474003EEF1AF046EF1AF00550092606500A22CC
:1034840007500B2208500C22D89005360636073612
:103494000836D8900432033202320132015002104D
:1034A40003100410D8A459EF1AF05BEF1AF037EFA9
:1034B4001AF009C501F50AC502F50BC503F50CC5DB
:1034C40004F51200B1985EC501F55FC502F5D9ECAB
:1034D4001BF04E4A4F2A4F5009E1050E4E5CD8A00E
:1034E40076EF1AF078EF1AF082EF1AF03DEC14F050
:1034F400D5EC15F0F0EC1BF0000E4F6E000E4E6E86
:103504004E4A4F2A4F5009E1320E4E5CD8A08DEF3F
:103514001AF08FEF1AF091EF1AF07BEC16F012000C
:1035240003C509F504C50AF501C507F502C508F583
:10353400B1EF1AF0610024F4D9F4610028F4DAF44C
:10354400DF500B6E094A0A2A61001CF4D9F46100A9
:1035540020F4DAF461002CF4DFF4074A082A0506A3
:10356400D8A00606052806E10628D8A4BCEF1AF060
:10357400BEEF1AF09CEF1AF012000101018F040E45
:1035840020EC19F00009D8A4CAEF1AF0CCEF1AF015
:10359400EAEF1AF0000E01014C6F260E4D6F000E7B
:1035A4004E6F000E4F6F600E006F970E016F100E7E
:1035B400026F25EC1DF011EC1DF01BEC1DF088ECE6
:1035C4001DF0C2EC1BF0B6EC19F0060E20EC19F05D
:1035D40012005E0EF66E390EF76E000EF86E01EEF6
:1035E400A4F110EE22F00900F5C4EEF4E550E15028
:1035F400FAE101EE60F1440EEE6AE806FDE101EE47
:103604003AF1240EEE6AE806FDE10401080E5D6F4E
:10361400000E5E6F000E5F6F000172EF1BF0000E74
:1036240003011F6F000E206F010E216F0B0E1D6F23
:10363400DC0E1C6FB1981C51600074FCD4F50501BC
:10364400D56BD4C5D5F5D46BD4115E6ED5515F6EF0
:10365400A188120ED26F3B0ED36F37EC1DF0210EF2
:1036640003011E6F1200026E000E016E040E026052
:103674003EEF1BF040EF1BF052EF1BF002500C0D1D
:10368400500EF324D96E010EF420DA6E0101DFAE80
:103694004EEF1BF050EF1BF052EF1BF0010E016ECA
:1036A40001501200562A56C501F5026A036A046ADB
:1036B4004650015C4750025848500358495004583A
:1036C400D8A067EF1BF069EF1BF071EF1BF0000E41
:1036D400566E4A4A4B2A4AC555F54B50546E120051
:1036E4001EEC1CF087EC1CF0C79ABF9AD68EBE88DD
:1036F400030E0501D36FE80ED26FA8EC1BF0BE9841
:10370400030E0501D36FE80ED26FA8EC1BF079EF1E
:103714001BF00DEF00F02FEC1DF054EC1BF0050135
:10372400CA51CB11D8B499EF1BF09BEF1BF0A7EF54
:103734001BF002D8A7EF1BF00500FA6ECA51FD6E0C
:10374400CB51FE6EFF6AFA5012001200B3EF1BF069
:10375400040E0501D46F3D0EE82EFED7D42FFCD7FE
:1037640000D00501D207D8A0D307D22906E1D32976
:10377400D8A4BFEF1BF0C1EF1BF0AAEF1BF012009F
:10378400000E0501D26FD251020DA50EF324D96E9D
:10379400050EF420DA6E000EDF6ED22BD251D8B4AF
:1037A400D6EF1BF0D8EF1BF0C5EF1BF0120003019E
:1037B4001EA5DFEF1BF0E1EF1BF0EAEF1BF01E91FB
:1037C40002501D6F610004F41CF31E81EFEF1BF027
:1037D40002501D6F610004F41CF312000501C8516E
:1037E400C911D8B4F8EF1BF0FAEF1BF006EF1CF088
:1037F40002D806EF1CF00500FA6EC851FD6EC951DF
:10380400FE6EFF6AFA50120012000501C651C7117C
:10381400D8B40FEF1CF011EF1CF01DEF1CF002D810
:103824001DEF1CF00500FA6EC651FD6EC751FE6E09
:10383400FF6AFA5012001200F3EC19F0BE8886EC0D
:103844001DF073EC1CF034EC1CF075EC18F0CDECAE
:103854001CF011EC1BF0E5EC1CF05FEC1CF0BFEC71
:103864001AF01200040E0201946F800E956F180E68
:10387400966F030E9E6F000E9A6F000E9B6F000EE4
:10388400976F000E8C6F000E8D6F000E9D6F1200EF
:10389400B19E4C4A4D2A4D5009E1050E4C5CD8A00E
:1038A40056EF1CF058EF1CF05EEF1CF007EC1CF018
:1038B400000E4D6E000E4C6E1200470E03011B6F7E
:1038C400C20E196F000E186FB19EA18E140E050161
:1038D400D26F3B0ED36F3CEC1DF0800E03011A6FC8
:1038E4001200000E0001606F000E616F000E626F27
:1038F400000E636F000E646F000E656F000E666F3E
:10390400000E676F000E686F1200020E506EA70E55
:103914000501886F000E896F000E8A6F000E8B6F91
:10392400100E466E000E476E000E486E000E496E75
:103934001200046E000E036E045035EC1BF00009F7
:10394400D8B4A7EF1CF0A9EF1CF0ADEF1CF00450A5
:10395400D9EC1CF0036E0350120001004255464698
:10396400455243414E0000000000000000000000EA
:10397400000000000000000000000000FBEC1CF050
:103984000009D8B4C8EF1CF0CBEF1CF0010ECCEF4B
:103994001CF0000E1200700E0001AD6F000EAF6F30
:1039A400000EB36F020EB16F000EB06F1200016E05
:1039B40001500C0D540EF324D96E010EF420DA6E6E
:1039C400DF50010B1200AF90D680160E0501D26FA6
:1039D4003B0ED36F41EC1DF09F801200010136B500
:1039E400F6EF1CF0F9EF1CF0010EFAEF1CF0000EDC
:1039F4001200010136B901EF1DF004EF1DF0010EB4
:103A040005EF1DF0000E1200010136BB0CEF1DF096
:103A14000FEF1DF0010E10EF1DF0000E1200100E3E
:103A24000101506F040E516F600E526F050E536FFB
:103A34001200080E01015C6F040E5D6F600E5E6F74
:103A4400050E5F6F1200010E0101046F010E056F78
:103A5400060E066F000E076F1200010E0501842783
:103A6400000E8523862387231200D2C5C8F5D3C54B
:103A7400C9F51200D2C5C6F5D3C5C7F51200D2C523
:103A8400CAF5D3C5CBF5120001010239E832070BA0
:103A94001200D2C590F5D3C591F51200D2C592F5A6
:103AA400D3C593F51200D2C58EF5D3C58FF5120098
:103AB400D2C594F5D3C595F51200D2C59AF5D3C5F0
:103AC4009BF51200D2C598F5D3C599F51200D2C55D
:103AD40096F5D3C597F51200D2C5CEF5D3C5CFF56B
:103AE4001200D2C5CCF5D3C5CDF51200D2C5D0F5A0
:103AF400D3C5D1F5120001010239E832070B1200D7
:103B0400AF908DEC1BF01200D69A12001200120036
:103B14001200120012001200120012001200120011
:023B240012008D
:020000040020DA
:10000000FF0FFF0FFF0FFF0FFF0FFF0FFF0FFF0F80
:10001000FF0FFF0FFF0FFF0FFF0FFF0FFF0FFF0F70
:020000040030CA
:10000000FAEFF7DF9FFFFFFFFFFFFFFFFFFFFFFF9D
:10001000FFFFFFFFFFFFFFFFFFFFFFFFFFFFFFFFF0
:04002000FFFFFFFFE0
:00000001FF
