:020000040000FA
:040000000DEF00F010
:040008008FEF16F070
:06001800FF0069EF19F082
:1026000000000000000000000000000000000000CA
:1026100000000000000000000000000000000000BA
:102620000000000000000000010203040506070886
:0326300050010056
:10263400610038F4D9F461003CF4DAF4610078F311
:1026440014F5610078F315F5610078F316F561006F
:1026540078F317F520EE04F00E50D9260F50DA2245
:10266400DFA037EF13F039EF13F073EF13F020EE20
:1026740001F00C50D9260D50DA221438E842F80B38
:10268400F80BDF6E050E106ED89017321632153225
:102694001432102E46EF13F020EE02F00C50D9261F
:1026A4000D50DA22610050F4DFF415C514F516C597
:1026B40015F517C516F5176A20EE03F00C50D92648
:1026C4000D50DA2214501F0BDF6E050E106ED890D9
:1026D4001732163215321432102E69EF13F08BEFC5
:1026E40013F020EE03F00C50D9260D50DA22000E20
:1026F400DF6E10EE02F00C50E1260D50E222DFC432
:10270400E7F420EE01F00C50D9260D50DA22E7C48C
:10271400DFF4610030F4D9F4610034F4DAF46100D8
:1027240050F4DFF415C514F516C515F517C516F5DF
:10273400176A14C510F5070E101620EE01F00C50A0
:10274400D9260D50DA221050DF1220EE04F00E507C
:10275400D9260F50DA22DF30E8320F0B136E20EE49
:1027640004F00E50D9260F50DA22DFB0BCEF13F07C
:10277400C0EF13F0106A102AC1EF13F0106A10387A
:10278400F00B131220EE04F00E50D9260F50DA226B
:10279400DFB2CFEF13F0D3EF13F0200E106ED4EFAF
:1027A40013F0106A1050131220EE04F00E50D926C4
:1027B4000F50DA22DFBEE1EF13F0E5EF13F0400E25
:1027C400106EE6EF13F0106A1050131220EE04F0AE
:1027D4000E50D9260F50DA22DFBCF3EF13F0F7EFD7
:1027E40013F0800E106EF8EF13F0106A10501312ED
:1027F40020EE04F00C50D9260D50DA2261004CF47E
:10280400DFF420EE04F00E50D9260F50DA22DFB2A6
:102814000EEF14F010EF14F03CEF14F0080E0C243B
:10282400016E000E0D20026E20EE05F00E50D9262A
:102834000F50DA22610078F303F5610074F304F5B4
:1028440020EE04F00E50D9260F50DA22DF30E832A1
:102854000F0B106E116A270E1024F66E260E11202F
:10286400F76EF86A000EF8220800F550056E066A45
:1028740010EC19F0120001011DAF43EF14F045EF05
:1028840014F054EF14F002D852EF14F00500FA6E6D
:1028940005019051FD6E9151FE6EFF6AFA501200CF
:1028A40001011D9F1DAD59EF14F05BEF14F06AEFA9
:1028B40014F002D868EF14F00500FA6E05018E5189
:1028C400FD6E8F51FE6EFF6AFA50120001011D9DCC
:1028D4001DAB6FEF14F071EF14F080EF14F002D819
:1028E4007EEF14F00500FA6E05018C51FD6E8D51DA
:1028F400FE6EFF6AFA50120001011D9B1CA785EFB2
:1029040014F087EF14F096EF14F002D894EF14F05B
:102914000500FA6E05018A51FD6E8B51FE6EFF6A49
:10292400FA50120001011C971DA99BEF14F09DEFB2
:1029340014F0ACEF14F002D8AAEF14F00500FA6E0C
:1029440005018851FD6E8951FE6EFF6AFA5012002E
:1029540001011D991DA5B1EF14F0B3EF14F0C9EFF7
:1029640014F002D8C0EF14F00500FA6E0501865188
:10297400FD6E8751FE6EFF6AFA501200010154A9E0
:10298400C6EF14F0C8EF14F0C9EF14F054991DA762
:10299400CEEF14F0D0EF14F0E6EF14F002D8DDEF30
:1029A40014F00500FA6E05018451FD6E8551FE6E2A
:1029B400FF6AFA501200010160A7E3EF14F0E5EF9B
:1029C40014F0E6EF14F06097AE9C120070EF15F06F
:1029D4004650D8A4F0EF14F0F2EF14F08DEF15F098
:1029E400010E1E6E030E1F6E000E206E000E216E71
:1029F400080E226E000E236E000E246E000E256E4D
:102A0400000E266E48C527F547C528F54BC529F5A0
:102A14004AC52AF58EEC15F000F0070E1E6E030E63
:102A24001F6E000E206E000E216E080E226E000E28
:102A3400236E000E246E000E256E000E266E48C511
:102A440027F547C528F54BC529F54AC52AF58EEC67
:102A540015F08DEF15F04650D8A433EF15F035EF8F
:102A640015F08DEF15F0040E1E6E030E1F6E000E92
:102A7400206E000E216E080E226E000E236E000ED4
:102A8400246E000E256E000E266E48C527F547C538
:102A940028F54BC529F54AC52AF58EEC15F000F04A
:102AA4000A0E1E6E030E1F6E000E206E000E216EA7
:102AB400080E226E000E236E000E246E000E256E8C
:102AC400000E266E48C527F547C528F54BC529F5E0
:102AD4004AC52AF58EEC15F08DEF15F04550356E8C
:102AE400366A3650000AD8B47AEF15F08DEF15F037
:102AF4003550010AD8B4EAEF14F0030AD8B42DEF24
:102B040015F0010AD8B48DEF15F0070AD8B48DEF8B
:102B140015F08DEF15F0120023502C6E2B6A000E69
:102B24002B142D6EFF0E2C142E6E24502D122550B6
:102B34002C6E2B6A000E2B142F6EFF0E2C14306E8D
:102B440026502F1227502C6E2B6A000E2B14316E38
:102B5400FF0E2C14326E2850311229502C6E2B6A21
:102B6400000E2B14336EFF0E2C14346E2A503312C5
:102B740023C59CF524C59DF525C59EF526C59FF561
:102B840027C5A0F528C5A1F529C5A2F52AC5A3F531
:102B94001EC550F51FC551F520C552F521C553F585
:102BA400549C549E5492549022C52BF52B462B468C
:102BB40054502B18C30B2B18546E9C0E556E050ED7
:102BC400566E99EC1BF0E806D8A4EBEF15F0EDEF88
:102BD40015F0EEEF15F000F08EEC1BF0E806D8A42B
:102BE400F6EF15F0F8EF15F0F9EF15F000F083ECBF
:102BF4001BF0E806D8A401EF16F003EF16F004EF7B
:102C040016F000F053EC1BF0E806D8A40CEF16F015
:102C14000EEF16F00FEF16F000F0000E1BEC1BF099
:102C24002B6E2BA018EF16F01AEF16F022EF16F009
:102C3400500E186E050E196E000EE5EC17F000F03C
:102C44001200076E000E096E20EE04F00250D92621
:102C54000350DA22DF500A6E0AAE33EF16F035EF76
:102C640016F040EF16F00FEC1CF0060AD8A43DEF66
:102C740016F03FEF16F040EF16F009820A30E83202
:102C84000F0B046E080E04644AEF16F04CEF16F0B6
:102C94005EEF16F00AAC51EF16F053EF16F05DEF4D
:102CA40016F00FEC1CF0060AD8A45BEF16F05DEFEB
:102CB40016F05EEF16F009802F0EF66E260EF76EF4
:102CC400F86A08006100D4F304F50A30E8320F0B07
:102CD400056E066A270E0524F66E260E0620F76E8C
:102CE400F86A000EF8220800F550045CD8B07DEFB5
:102CF40016F07FEF16F080EF16F0098007506CECA9
:102D04001BF00009D8A489EF16F08BEF16F08DEFB5
:102D140016F0030E0912095012006100D8F337F5BA
:102D24006100DCF338F56100E0F339F56100D4F3B8
:102D34003AF5A1A8A0EF16F0A2EF16F0ADEF16F049
:102D4400B1A8A7EF16F0A9EF16F0ADEF16F0B3ECAB
:102D540019F0E3EF16F0A1AEB2EF16F0B4EF16F0EF
:102D6400BFEF16F0B1AEB9EF16F0BBEF16F0BFEF40
:102D740016F0DEEC1AF0E3EF16F09FA0C4EF16F0A5
:102D8400C6EF16F0D1EF16F0AFA0CBEF16F0CDEFF3
:102D940016F0D1EF16F014EC1CF0E3EF16F09EAC35
:102DA400D6EF16F0D8EF16F0E3EF16F0AEACDDEF89
:102DB40016F0DFEF16F0E3EF16F03DEC14F0E3EF5E
:102DC40016F06100E8F4F5F46100E4F4F8F461004D
:102DD400E0F4F7F46100DCF4F6F41100020E0301F0
:102DE400F96F000EFA6F000ED86F000EFB6F000E25
:102DF400D96F000EDA6F000EDB6F000EDC6F000E71
:102E0400DF6F000EE06F000EE36F000EE46F000E44
:102E1400E56F000EE66F000EE76F000EEA6F000E1E
:102E2400EB6F100EEC6F000EEE6F000EEF6F000EE6
:102E3400F06F000EF16F000EF26F000EF36F000ED4
:102E4400F46F100EF56F000EF66F000EF76F120E92
:102E5400F86F000EFC6FAF94AF96B090000E0501B2
:102E6400C86F000EC96F0AEC1CF0000E0501C86F94
:102E7400000EC96F00EC1CF0000E0501C86F000EB7
:102E8400C96F05EC1CF0840E0301F36F12004EC5EC
:102E940001F54F50E2EC18F04D02F350640D61005F
:102EA400CCF349F54950000D6100CCF33DF56100C8
:102EB400D0F33EF53DC501F53EC502F5000E046EA6
:102EC400240E036EC9EC1AF001C507F502C508F516
:102ED400000E0A6E0A0E096EA8EC18F007C53BF541
:102EE40008C53CF5980E3B5C3A0E3C58D8A07DEFE3
:102EF40017F07FEF17F083EF17F0010E466E96EF91
:102F040017F0000E466E3BC507F53CC508F5000EEC
:102F14000A6E640E096EA8EC18F00750486E48500B
:102F24009C0DF3503B24476E000E4D6E12000501BC
:102F3400CA6F000E0501C96FD8EC1BF00501C86FFC
:102F4400040EC819D8B4A9EF17F0ABEF17F0BCEF13
:102F540017F0CA05D8B4B1EF17F0B3EF17F0BCEF10
:102F640017F0040ECA19D8A4BAEF17F0BCEF17F083
:102F7400E1EF17F0010103510501CA19F80BCA1951
:102F84000101036FD3EF17F001011DA9CCEF17F076
:102F9400CEEF17F0D3EF17F0020E0501C96FE3EF80
:102FA40017F00239E832070B0501CA19D8A4DDEF7E
:102FB40017F0DFEF17F0C6EF17F0E3EF17F0010E8D
:102FC400C96FC95112001D6E1D50D2EC19F00009D1
:102FD400D8B4EFEF17F0F1EF17F02EEF18F018C593
:102FE40002F519C503F51D5023EC16F01A6E1A509C
:102FF400D8A4FFEF17F001EF18F02EEF18F01D50D2
:103004000C0D580EF324D96E010EF420DA6E610013
:1030140078F31BF5610074F31CF51B501C10D8B435
:1030240016EF18F018EF18F02EEF18F01BC50CF57A
:103034001CC50DF518C50EF519C50FF51AEC13F0DE
:103044001D500C0D510EF324D96E010EF420DA6ECE
:10305400030EDF122EEF18F01200480E0501C86FA0
:10306400380EC96FF1EC1BF04A0E0501C86F380E1B
:10307400C96FF6EC1BF04C0E0501C86F380EC96F12
:10308400FBEC1BF0460E0501C86F380EC96FECEC63
:103094001BF0420E0501C86F380EC96FE2EC1BF03D
:1030A400400E0501C86F380EC96FDDEC1BF0440EED
:1030B4000501C86F380EC96FE7EC1BF0AE9C000E1B
:1030C40001011C6F000E1D6F080E1E6FFC0E1F6F9A
:1030D4009E8C1200000EBE6E000EBF6E000EC06EFF
:1030E400080ECA6EEF0EC66ECF0EC76EE70EC86E20
:1030F400670E0401106FF60E086F0069000E216F51
:10310400000E096F000E016F000E116F000E026FAA
:10311400000E0A6F180E126F03690B6913690469B4
:103124000C691469080E246F170E0201696F140EDE
:10313400706F370E146F080E3E6F380E156F0B0E3E
:103144003D6F460E0D6F130E716F1200000E0C6E64
:10315400000E0B6E09500A10D8B4B3EF18F0B5EF97
:1031640018F0DDEF18F0010E0D6EBDEF18F0D890D9
:1031740009360A360D2A0AAEC2EF18F0C4EF18F069
:10318400B9EF18F0D8900B360C360950075C0A508A
:103194000858D8A0D0EF18F0D2EF18F0D7EF18F0F5
:1031A4000950075E0A50085A0B80D8900A32093237
:1031B4000D2EC4EF18F00BC507F50CC508F5120069
:1031C400026E000E046E0150D8B4EBEF18F0EDEF70
:1031D40018F00EEF19F0010E036EF4EF18F0D8900A
:1031E4000136032A01AEF9EF18F0FBEF18F0F1EF06
:1031F40018F0D89004360150025CD8A004EF19F0FE
:1032040006EF19F009EF19F00150025E0480D8901E
:103214000132032EFBEF18F00450120003C509F528
:1032240004C50AF501C507F502C508F52FEF19F025
:10323400610024F4D9F4610028F4DAF4DF500B6E51
:10324400094A0A2A61001CF4D9F4610020F4DAF472
:1032540061002CF4DFF4074A082A0506D8A0060604
:10326400052806E10628D8A43AEF19F03CEF19F036
:103274001AEF19F012000101018F040E99EC17F0F6
:103284000009D8A448EF19F04AEF19F068EF19F0D3
:10329400000E01014C6F260E4D6F000E4E6F000E96
:1032A4004F6F600E006F970E016F100E026FB8EC37
:1032B4001BF0A4EC1BF0AEEC1BF01CEC1CF041EC7E
:1032C4001AF02FEC18F0060E99EC17F01200840E89
:1032D400F66E360EF76E000EF86E01EE9AF110EEF1
:1032E40022F00900F5C4EEF4E550E150FAE101EEF4
:1032F40060F13A0EEE6AE806FDE101EE3BF11C0EC8
:10330400EE6AE806FDE10401080E5D6F000E5E6FD3
:10331400000E5F6F0001F1EF19F0000E03011F6F43
:10332400000E206F010E216F0B0E1D6FDC0E1C6F43
:10333400B1981C51600074FCCAF50501CB6BCAC579
:10334400CBF5CA6BCA11576ECB51586EA1883A0E91
:10335400C86F380EC96FC9EC1BF0210E03011E6F34
:103364001200B19857C501F558C502F558EC1AF08A
:1033740049EC17F0E8EC14F0434A442A445009E1BC
:10338400050E435CD8A0C9EF19F0CBEF19F0D1EFCB
:1033940019F06FEC1AF0000E446E000E436E12002A
:1033A400026E000E016E040E0260DBEF19F0DDEF19
:1033B40019F0EFEF19F002500C0D500EF324D96EF2
:1033C400010EF420DA6E0101DFAEEBEF19F0EDEF40
:1033D40019F0EFEF19F0010E016E015012009DEC8F
:1033E4001AF0C2EC1BF0C79ABF9AD68EBE88030EA1
:1033F4000501C96FE80EC86F27EC1AF0BE98030EDA
:103404000501C96FE80EC86F27EC1AF0F8EF19F040
:103414000DEF00F01AEC1CF02FEC1BF00501C0516D
:10342400C111D8B418EF1AF01AEF1AF026EF1AF0F7
:1034340002D826EF1AF00500FA6EC051FD6EC15194
:10344400FE6EFF6AFA501200120032EF1AF0040EF8
:103454000501CA6F3D0EE82EFED7CA2FFCD700D057
:103464000501C807D8A0C907C82906E1C929D8A4F5
:103474003EEF1AF040EF1AF029EF1AF01200000E96
:103484000501C86FC851020D9B0EF324D96E050EB9
:10349400F420DA6E000EDF6EC82BC851D8B455EF95
:1034A4001AF057EF1AF044EF1AF0120003011EA5A8
:1034B4005EEF1AF060EF1AF069EF1AF01E910250F5
:1034C4001D6F610004F41CF31E816EEF1AF00250AC
:1034D4001D6F610004F41CF312000501BE51BF11FD
:1034E400D8B477EF1AF079EF1AF085EF1AF002D812
:1034F40085EF1AF00500FA6EBE51FD6EBF51FE6EE7
:10350400FF6AFA50120012000501BC51BD11D8B473
:103514008EEF1AF090EF1AF09CEF1AF002D89CEF9D
:103524001AF00500FA6EBC51FD6EBD51FE6EFF6AC5
:10353400FA50120012006CEC18F0BE8818EC1CF063
:1035440007EC1BF0B3EC1AF0F0EC16F060EC1BF097
:103554008FEC19F078EC1BF0F3EC1AF03DEC19F059
:103564001200040E0201946F800E956F180E966F70
:10357400030E9E6F000E9A6F000E9B6F000E976FE6
:10358400000E8C6F000E8D6F000E9D6F12000150A7
:1035940003026100CCF305F56100D0F306F5015098
:1035A4000402F350062602500302F350062605C512
:1035B40001F506C502F51200B19E414A422A425065
:1035C40009E1050E415CD8A0EAEF1AF0ECEF1AF01D
:1035D400F2EF1AF086EC1AF0000E426E000E416E05
:1035E4001200470E03011B6FC20E196F000E186FF5
:1035F400B19EA18E3C0E0501C86F380EC96FCEEC8A
:103604001BF0800E03011A6F1200000E0001606FA0
:10361400000E616F000E626F000E636F000E646F28
:10362400000E656F000E666F000E676F000E686F08
:103634001200046E000E036E0450D2EC19F000095F
:10364400D8B427EF1BF029EF1BF02DEF1BF004502B
:103654006CEC1BF0036E035012004C2A4E504C5C71
:10366400D8A037EF1BF039EF1BF041EF1BF0000E31
:103674004C6E3F4A402A3FC54BF540504A6E1200FB
:10368400010042554646455243414E0000000000A9
:103694000000000000000000000000000000000026
:1036A40000008EEC1BF00009D8B45BEF1BF05EEF5A
:1036B4001BF0010E5FEF1BF0000E1200700E0001F4
:1036C400AD6F000EAF6F000EB36F020EB16F000E40
:1036D400B06F1200016E01500C0D540EF324D96E1C
:1036E400010EF420DA6EDF50010B1200AF90D68089
:1036F4003E0E0501C86F380EC96FD3EC1BF09F80D6
:103704001200010136B589EF1BF08CEF1BF0010E9E
:103714008DEF1BF0000E1200010136B994EF1BF07F
:1037240097EF1BF0010E98EF1BF0000E1200010141
:1037340036BB9FEF1BF0A2EF1BF0010EA3EF1BF0B3
:10374400000E1200100E0101506F040E516F600E36
:10375400526F050E536F1200080E01015C6F040EC8
:103764005D6F600E5E6F050E5F6F1200010E01014A
:10377400046F010E056F060E066F000E076F120030
:10378400010E456EA70E4F6E100E4E6E1200C8C588
:10379400BEF5C9C5BFF51200C8C5BCF5C9C5BDF5A0
:1037A4001200C8C5C0F5C9C5C1F51200010102392E
:1037B400E832070B1200C8C586F5C9C587F51200A3
:1037C400C8C588F5C9C589F51200C8C584F5C9C539
:1037D40085F51200C8C58AF5C9C58BF51200C8C5A0
:1037E40090F5C9C591F51200C8C58EF5C9C58FF508
:1037F4001200C8C58CF5C9C58DF51200C8C5C4F53D
:10380400C9C5C5F51200C8C5C2F5C9C5C3F51200BE
:10381400C8C5C6F5C9C5C7F5120001010239E832A9
:10382400070B1200AF900CEC1AF01200D69A12009B
:103834004D2A12001200120012001200120012008F
:0A3844001200120012001200120020
:020000040020DA
:10000000FF0FFF0FFF0FFF0FFF0FFF0FFF0FFF0F80
:10001000FF0FFF0FFF0FFF0FFF0FFF0FFF0FFF0F70
:020000040030CA
:10000000FAEFF7DF9FFFFFFFFFFFFFFFFFFFFFFF9D
:10001000FFFFFFFFFFFFFFFFFFFFFFFFFFFFFFFFF0
:04002000FFFFFFFFE0
:00000001FF
