:020000040000FA
:040000000DEF00F010
:040008007DEF17F081
:06001800FF0026EF1AF0C4
:1026000000000000000000000000000000000000CA
:1026100000000000000000000000000000000000BA
:102620000000000000000000010203040506070886
:0326300050010056
:10263400610038F4D9F461003CF4DAF4610078F311
:1026440014F5610078F315F5610078F316F561006F
:1026540078F317F520EE04F00E50D9260F50DA2245
:10266400DFA037EF13F039EF13F073EF13F020EE20
:1026740001F00C50D9260D50DA221438E842F80B38
:10268400F80BDF6E050E106ED89017321632153225
:102694001432102E46EF13F020EE02F00C50D9261F
:1026A4000D50DA22610050F4DFF415C514F516C597
:1026B40015F517C516F5176A20EE03F00C50D92648
:1026C4000D50DA2214501F0BDF6E050E106ED890D9
:1026D4001732163215321432102E69EF13F08BEFC5
:1026E40013F020EE03F00C50D9260D50DA22000E20
:1026F400DF6E10EE02F00C50E1260D50E222DFC432
:10270400E7F420EE01F00C50D9260D50DA22E7C48C
:10271400DFF4610030F4D9F4610034F4DAF46100D8
:1027240050F4DFF415C514F516C515F517C516F5DF
:10273400176A14C510F5070E101620EE01F00C50A0
:10274400D9260D50DA221050DF1220EE04F00E507C
:10275400D9260F50DA22DF30E8320F0B136E20EE49
:1027640004F00E50D9260F50DA22DFB0BCEF13F07C
:10277400C0EF13F0106A102AC1EF13F0106A10387A
:10278400F00B131220EE04F00E50D9260F50DA226B
:10279400DFB2CFEF13F0D3EF13F0200E106ED4EFAF
:1027A40013F0106A1050131220EE04F00E50D926C4
:1027B4000F50DA22DFBEE1EF13F0E5EF13F0400E25
:1027C400106EE6EF13F0106A1050131220EE04F0AE
:1027D4000E50D9260F50DA22DFBCF3EF13F0F7EFD7
:1027E40013F0800E106EF8EF13F0106A10501312ED
:1027F40020EE04F00C50D9260D50DA2261004CF47E
:10280400DFF420EE04F00E50D9260F50DA22DFB2A6
:102814000EEF14F010EF14F03CEF14F0080E0C243B
:10282400016E000E0D20026E20EE05F00E50D9262A
:102834000F50DA22610078F303F5610074F304F5B4
:1028440020EE04F00E50D9260F50DA22DF30E832A1
:102854000F0B106E116A270E1024F66E260E11202F
:10286400F76EF86A000EF8220800F550056E066A45
:10287400CDEC19F0120084C501F585C502F586C5B5
:1028840003F587C504F5640E056E000E066E000E92
:10289400076E000E086E98EC19F001C543F502C5E9
:1028A40044F503C545F504C546F543C501F544C5DE
:1028B40002F545C503F546C504F54BC505F54CC5FC
:1028C40006F54DC507F54EC508F598EC19F001C598
:1028D40043F502C544F503C545F504C546F543C5AE
:1028E40001F544C502F545C503F546C504F547C5DC
:1028F40005F548C506F549C507F54AC508F537EC99
:1029040018F001C543F502C544F503C545F504C5F2
:1029140046F543C501F544C502F545C503F546C56D
:1029240004F50A0E056E000E066E000E076E000E0C
:10293400086E98EC19F001C53FF502C540F503C5D2
:1029440041F504C542F53FC501F540C502F541C551
:1029540003F542C504F5F40E056E010E066E000E75
:10296400076E000E086E37EC18F001C53FF502C57E
:1029740040F503C541F504C542F53FC501F540C521
:1029840002F541C503F542C504F5240E056E000E9B
:10299400066E000E076E000E086E98EC19F001C565
:1029A4003BF502C53CF503C53DF504C53EF53BC505
:1029B40001F53CC502F53DC503F53EC504F50A0E17
:1029C400056E000E066E000E076E000E086E37ECE4
:1029D40018F001C53BF502C53CF503C53DF504C53A
:1029E4003EF53E503D100BE1980E3B5C3A0E3C58D0
:1029F400D8A0FFEF14F001EF15F005EF15F0010E6C
:102A0400566E20EF15F0000E566E3BC501F53CC521
:102A140002F53DC503F53EC504F5640E056E000ED2
:102A2400066E000E076E000E086E37EC18F00150AB
:102A3400586E58509C0DF3503B24576E000E050100
:102A4400846F000E856F000E866F000E876F120074
:102A540001011DAF30EF15F032EF15F041EF15F025
:102A640002D83FEF15F00500FA6E05019451FD6E92
:102A74009551FE6EFF6AFA50120001011D9F1DADB3
:102A840046EF15F048EF15F057EF15F002D855EF63
:102A940015F00500FA6E05019251FD6E9351FE6E1C
:102AA400FF6AFA50120001011D9D1DAB5CEF15F089
:102AB4005EEF15F06DEF15F002D86BEF15F0050021
:102AC400FA6E05019051FD6E9151FE6EFF6AFA5047
:102AD400120001011D9B1CA772EF15F074EF15F095
:102AE40083EF15F002D881EF15F00500FA6E0501A9
:102AF4008E51FD6E8F51FE6EFF6AFA501200010175
:102B04001C971DA988EF15F08AEF15F099EF15F0C1
:102B140002D897EF15F00500FA6E05018C51FD6E91
:102B24008D51FE6EFF6AFA50120001011D991DA518
:102B34009EEF15F0A0EF15F0B6EF15F002D8ADEF4B
:102B440015F00500FA6E05018A51FD6E8B51FE6E7B
:102B5400FF6AFA501200010154A9B3EF15F0B5EF62
:102B640015F0B6EF15F054991DA7BBEF15F0BDEFA6
:102B740015F0D3EF15F002D8CAEF15F00500FA6E80
:102B840005018851FD6E8951FE6EFF6AFA501200EC
:102B9400010160A7D0EF15F0D2EF15F0D3EF15F0D7
:102BA4006097AE9C12005DEF16F05650D8A4DDEF8E
:102BB40015F0DFEF15F07AEF16F0010E1E6E030E1E
:102BC4001F6E000E206E000E216E080E226E000E87
:102BD400236E000E246E000E256E000E266E58C560
:102BE40027F557C528F55AC529F559C52AF57BECAB
:102BF40016F000F0070E1E6E030E1F6E000E206E00
:102C0400000E216E080E226E000E236E000E246E3E
:102C1400000E256E000E266E58C527F557C528F5FB
:102C24005AC529F559C52AF57BEC16F07AEF16F04A
:102C34005650D8A420EF16F022EF16F07AEF16F0D3
:102C4400040E1E6E030E1F6E000E206E000E216E0B
:102C5400080E226E000E236E000E246E000E256EEA
:102C6400000E266E58C527F557C528F55AC529F50F
:102C740059C52AF57BEC16F000F00A0E1E6E030E01
:102C84001F6E000E206E000E216E080E226E000EC6
:102C9400236E000E246E000E256E000E266E58C59F
:102CA40027F557C528F55AC529F559C52AF57BECEA
:102CB40016F07AEF16F05550356E366A3650000A23
:102CC400D8B467EF16F07AEF16F03550010AD8B48D
:102CD400D7EF15F0030AD8B41AEF16F0010AD8B4E6
:102CE4007AEF16F0070AD8B47AEF16F07AEF16F0F6
:102CF400120023502C6E2B6A000E2B142D6EFF0E27
:102D04002C142E6E24502D1225502C6E2B6A000E7E
:102D14002B142F6EFF0E2C14306E26502F122750BA
:102D24002C6E2B6A000E2B14316EFF0E2C14326E97
:102D34002850311229502C6E2B6A000E2B14336E3E
:102D4400FF0E2C14346E2A50331223C5A7F524C564
:102D5400A8F525C5A9F526C5AAF527C5ABF528C547
:102D6400ACF529C5ADF52AC5AEF51EC59EF51FC542
:102D74009FF520C5A0F521C5A1F50501A29DA29F3F
:102D8400A293A29122C52BF52B462B46A2512B18B8
:102D9400C30B2B18A26FA70EA36F050EA46F5FECD5
:102DA4001CF0E806D8A4D9EF16F0DBEF16F0DCEF40
:102DB40016F000F054EC1CF0E806D8A4E4EF16F08A
:102DC400E6EF16F0E7EF16F000F049EC1CF0E80629
:102DD400D8A4EFEF16F0F1EF16F0F2EF16F000F0D2
:102DE40019EC1CF0E806D8A4FAEF16F0FCEF16F084
:102DF400FDEF16F000F0000EE1EC1BF02B6E2BA0A3
:102E040006EF17F008EF17F010EF17F09E0E186E8C
:102E1400050E196E000ED5EC18F000F01200076EC6
:102E2400000E096E20EE04F00250D9260350DA2277
:102E3400DF500A6E0AAE21EF17F023EF17F02EEFE2
:102E440017F0D6EC1CF0060AD8A42BEF17F02DEFE0
:102E540017F02EEF17F009820A30E8320F0B046ED8
:102E6400080E046438EF17F03AEF17F04CEF17F040
:102E74000AAC3FEF17F041EF17F04BEF17F0D6EC29
:102E84001CF0060AD8A449EF17F04BEF17F04CEFEB
:102E940017F009802F0EF66E260EF76EF86A0800FA
:102EA4006100D4F304F50A30E8320F0B056E066AAC
:102EB400270E0524F66E260E0620F76EF86A000E1D
:102EC400F8220800F550045CD8B06BEF17F06DEFF2
:102ED40017F06EEF17F00980075032EC1CF0000970
:102EE400D8A477EF17F079EF17F07BEF17F0030E04
:102EF4000912095012006100D8F337F56100DCF3C0
:102F040038F56100E0F339F56100D4F33AF5A1A88E
:102F14008EEF17F090EF17F09BEF17F0B1A895EF35
:102F240017F097EF17F09BEF17F070EC1AF0D1EF52
:102F340017F0A1AEA0EF17F0A2EF17F0ADEF17F066
:102F4400B1AEA7EF17F0A9EF17F0ADEF17F0A4ECAF
:102F54001BF0D1EF17F09FA0B2EF17F0B4EF17F00A
:102F6400BFEF17F0AFA0B9EF17F0BBEF17F0BFEF4B
:102F740017F0DBEC1CF0D1EF17F09EACC4EF17F0A8
:102F8400C6EF17F0D1EF17F0AEACCBEF17F0CDEFE3
:102F940017F0D1EF17F02AEC15F0D1EF17F061001C
:102FA400E8F4F5F46100E4F4F8F46100E0F4F7F413
:102FB4006100DCF4F6F41100020E0301F96F000E57
:102FC400FA6F000ED86F000EFB6F000ED96F000E63
:102FD400DA6F000EDB6F000EDC6F000EDF6F000E89
:102FE400E06F000EE36F000EE46F000EE56F000E5D
:102FF400E66F000EE76F000EEA6F000EEB6F100E27
:10300400EC6F000EEE6F000EEF6F000EF06F000E0F
:10301400F16F000EF26F000EF36F000EF46F100EDE
:10302400F56F000EF66F000EF76F120EF86F000EBC
:10303400FC6FAF94AF96B090000E0501D36F000EF5
:10304400D46FD1EC1CF0000E0501D36F000ED46FC9
:10305400C7EC1CF0000E0501D36F000ED46FCCEC4E
:103064001CF0840E0301F36F1200000E096E000EB3
:103074000A6E000E0B6E000E0C6E05500610071043
:103084000810D8B448EF18F04AEF18F080EF18F0A1
:10309400010E0D6E54EF18F0D8900536063607363B
:1030A40008360D2A08AE59EF18F05BEF18F04EEF12
:1030B40018F0D89009360A360B360C360550015CE8
:1030C400065002580750035808500458D8A06DEF12
:1030D40018F06FEF18F078EF18F00550015E065005
:1030E400025A0750035A0850045A0980D8900832EB
:1030F4000732063205320D2E5BEF18F009C501F5D3
:103104000AC502F50BC503F50CC504F5120005014B
:10311400D56F000E0501D46F9FEC1CF00501D36F31
:10312400040ED319D8B499EF18F09BEF18F0ACEF54
:1031340018F0D505D8B4A1EF18F0A3EF18F0ACEF50
:1031440018F0040ED519D8A4AAEF18F0ACEF18F0B3
:10315400D1EF18F0010103510501D519F80BD51968
:103164000101036FC3EF18F001011DA9BCEF18F0B2
:10317400BEEF18F0C3EF18F0020E0501D46FD3EFC1
:1031840018F00239E832070B0501D519D8A4CDEFA0
:1031940018F0CFEF18F0B6EF18F0D3EF18F0010ED7
:1031A400D46FD45112001D6E1D508FEC1AF000091B
:1031B400D8B4DFEF18F0E1EF18F01EEF19F018C5DE
:1031C40002F519C503F51D5011EC17F01A6E1A50CB
:1031D400D8A4EFEF18F0F1EF18F01EEF19F01D501E
:1031E4000C0D580EF324D96E010EF420DA6E610032
:1031F40078F31BF5610074F31CF51B501C10D8B454
:1032040006EF19F008EF19F01EEF19F01BC50CF5C5
:103214001CC50DF518C50EF519C50FF51AEC13F0FC
:103224001D500C0D510EF324D96E010EF420DA6EEC
:10323400030EDF121EEF19F01200D20E0501D36F38
:10324400390ED46FB8EC1CF0D40E0501D36F390ECF
:10325400D46FBDEC1CF0D60E0501D36F390ED46FBC
:10326400C2EC1CF0D00E0501D36F390ED46FB3EC51
:103274001CF0CC0E0501D36F390ED46FA9EC1CF0F1
:10328400CA0E0501D36F390ED46FA4EC1CF0CE0E18
:103294000501D36F390ED46FAEEC1CF0AE9C000E5A
:1032A40001011C6F000E1D6F080E1E6FFC0E1F6FB8
:1032B4009E8C1200000EBE6E000EBF6E000EC06E1D
:1032C400080ECA6EEF0EC66ECF0EC76EE70EC86E3E
:1032D400670E0401106FF60E086F0069000E216F6F
:1032E400000E096F000E016F000E116F000E026FC9
:1032F400000E0A6F180E126F03690B6913690469D3
:103304000C691469080E246F170E0201696F140EFC
:10331400706F370E146F080E3E6F380E156F0B0E5C
:103324003D6F460E0D6F130E716F1200000E096E85
:10333400000E0A6E000E0B6E000E0C6E01A0A5EFBF
:1033440019F0A7EF19F0AFEF19F005500926065050
:103354000A2207500B2208500C22D8900536063654
:1033640007360836D8900432033202320132015053
:10337400021003100410D8A4C2EF19F0C4EF19F01E
:10338400A0EF19F009C501F50AC502F50BC503F54F
:103394000CC504F5120003C509F504C50AF501C5F9
:1033A40007F502C508F5ECEF19F0610024F4D9F42F
:1033B400610028F4DAF4DF500B6E094A0A2A61002E
:1033C4001CF4D9F4610020F4DAF461002CF4DFF485
:1033D400074A082A0506D8A00606052806E1062895
:1033E400D8A4F7EF19F0F9EF19F0D7EF19F012009C
:1033F4000101018F040E89EC18F00009D8A405EF2F
:103404001AF007EF1AF025EF1AF0000E01014C6FC5
:10341400260E4D6F000E4E6F000E4F6F600E006F44
:10342400970E016F100E026F7EEC1CF06AEC1CF01C
:1034340074EC1CF0E1EC1CF01CEC1BF01FEC19F01C
:10344400060E89EC18F01200100EF66E380EF76EA8
:10345400000EF86E01EEA5F110EE22F00900F5C49D
:10346400EEF4E550E150FAE101EE60F1450EEE6A4A
:10347400E806FDE101EE3BF1210EEE6AE806FDE10E
:103484000401080E5D6F000E5E6F000E5F6F000199
:10349400CCEF1AF0000E03011F6F000E206F010E17
:1034A400216F0B0E1D6FDC0E1C6FB1981C51600058
:1034B40074FCD5F50501D66BD5C5D6F5D56BD511FC
:1034C4005C6ED6515D6EA188C40ED36F390ED46F75
:1034D40090EC1CF0210E03011E6F1200B1985CC524
:1034E40001F55DC502F533EC1BF0534A542A5450E0
:1034F40009E1050E535CD8A082EF1AF084EF1AF0AC
:103504008EEF1AF03DEC14F0D5EC15F04AEC1BF0FC
:10351400000E546E000E536E1200026E000E016E09
:10352400040E026098EF1AF09AEF1AF0ACEF1AF05A
:1035340002500C0D500EF324D96E010EF420DA6EF5
:103544000101DFAEA8EF1AF0AAEF1AF0ACEF1AF0FF
:10355400010E016E015012005B2A5BC501F5026A7F
:10356400036A046A4750015C4850025849500358A2
:103574004A500458D8A0C1EF1AF0C3EF1AF0CBEFA9
:103584001AF0000E5B6E4F4A502A4FC55AF5505040
:10359400596E120078EC1BF0F5EC1BF0C79ABF9A39
:1035A400D68EBE88030E0501D46FE80ED36F02ECED
:1035B4001BF0BE98030E0501D46FE80ED36F02EC26
:1035C4001BF0D3EF1AF00DEF00F088EC1CF0AEEC1A
:1035D4001AF00501CB51CC11D8B4F3EF1AF0F5EF82
:1035E4001AF001EF1BF002D801EF1BF00500FA6E90
:1035F400CB51FD6ECC51FE6EFF6AFA5012001200E0
:103604000DEF1BF0040E0501D56F3D0EE82EFED71D
:10361400D52FFCD700D00501D307D8A0D407D329D0
:1036240006E1D429D8A419EF1BF01BEF1BF004EF1B
:103634001BF01200000E0501D36FD351020DA60E2C
:10364400F324D96E050EF420DA6E000EDF6ED32B50
:10365400D351D8B430EF1BF032EF1BF01FEF1BF047
:10366400120003011EA539EF1BF03BEF1BF044EFE2
:103674001BF01E9102501D6F610004F41CF31E81A7
:1036840049EF1BF002501D6F610004F41CF312009B
:103694000501C951CA11D8B452EF1BF054EF1BF005
:1036A40060EF1BF002D860EF1BF00500FA6EC95101
:1036B400FD6ECA51FE6EFF6AFA5012001200050137
:1036C400C751C811D8B469EF1BF06BEF1BF077EF4B
:1036D4001BF002D877EF1BF00500FA6EC751FD6EA0
:1036E400C851FE6EFF6AFA50120012005CEC19F029
:1036F400BE88DFEC1CF0CDEC1BF08EEC1BF0DEEC96
:1037040017F026EC1CF04CEC1AF03EEC1CF0B9EC73
:103714001BF0FAEC19F01200040E0201946F800EF3
:10372400956F180E966F030E9E6F000E9A6F000E23
:103734009B6F000E976F000E8C6F000E8D6F000E46
:103744009D6F1200B19E514A522A525009E1050E52
:10375400515CD8A0B0EF1BF0B2EF1BF0B8EF1BF038
:1037640061EC1BF0000E526E000E516E1200470EFB
:1037740003011B6FC20E196F000E186FB19EA18E4C
:10378400C60E0501D36F390ED46F95EC1CF0800E74
:1037940003011A6F1200000E0001606F000E616FCA
:1037A400000E626F000E636F000E646F000E656F93
:1037B400000E666F000E676F000E686F1200046ED5
:1037C400000E036E04508FEC1AF00009D8B4EDEF2C
:1037D4001BF0EFEF1BF0F3EF1BF0045032EC1CF086
:1037E400036E03501200020E556EA70E4B6E000EB0
:1037F4004C6E000E4D6E000E4E6E100E476E000E97
:10380400486E000E496E000E4A6E120001004255C9
:103814004646455243414E000000000000000000AF
:10382400000000000000000000000000000054EC54
:103834001CF00009D8B421EF1CF024EF1CF0010E99
:1038440025EF1CF0000E1200700E0001AD6F000E8B
:10385400AF6F000EB36F020EB16F000EB06F1200A7
:10386400016E01500C0D540EF324D96E010EF42098
:10387400DA6EDF50010B1200AF90D680C80E05013E
:10388400D36F390ED46F9AEC1CF09F8012000101A3
:1038940036B54FEF1CF052EF1CF0010E53EF1CF045
:1038A400000E1200010136B95AEF1CF05DEF1CF056
:1038B400010E5EEF1CF0000E1200010136BB65EF35
:1038C4001CF068EF1CF0010E69EF1CF0000E1200F2
:1038D400100E0101506F040E516F600E526F050EF1
:1038E400536F1200080E01015C6F040E5D6F600ED1
:1038F4005E6F050E5F6F1200010E0101046F010E71
:10390400056F060E066F000E076F1200010E05010B
:103914008427000E8523862387231200D3C5C9F587
:10392400D4C5CAF51200D3C5C7F5D4C5C8F512006D
:10393400D3C5CBF5D4C5CCF5120001010239E83268
:10394400070B1200D3C58AF5D4C58BF51200D3C575
:103954008CF5D4C58DF51200D3C588F5D4C589F589
:103964001200D3C58EF5D4C58FF51200D3C594F5D6
:10397400D4C595F51200D3C592F5D4C593F51200BC
:10398400D3C590F5D4C591F51200D3C5CFF5D4C5F0
:10399400D0F51200D3C5CDF5D4C5CEF51200D3C5EC
:1039A400D1F5D4C5D2F5120001010239E832070B72
:1039B4001200AF90E7EC1AF01200D69A120012002F
:1039C4001200120012001200120012001200120063
:0439D40012001200CB
:020000040020DA
:10000000FF0FFF0FFF0FFF0FFF0FFF0FFF0FFF0F80
:10001000FF0FFF0FFF0FFF0FFF0FFF0FFF0FFF0F70
:020000040030CA
:10000000FAEFF7DF9FFFFFFFFFFFFFFFFFFFFFFF9D
:10001000FFFFFFFFFFFFFFFFFFFFFFFFFFFFFFFFF0
:04002000FFFFFFFFE0
:00000001FF
